{
	"MangoRepo.sol": {
		"MangoRepo": {
			"abi": [
				{
					"inputs": [],
					"stateMutability": "nonpayable",
					"type": "constructor"
				},
				{
					"inputs": [
						{
							"internalType": "string",
							"name": "hash",
							"type": "string"
						}
					],
					"name": "addSnapshot",
					"outputs": [],
					"stateMutability": "nonpayable",
					"type": "function"
				},
				{
					"inputs": [
						{
							"internalType": "string",
							"name": "ref",
							"type": "string"
						}
					],
					"name": "deleteRef",
					"outputs": [],
					"stateMutability": "nonpayable",
					"type": "function"
				},
				{
					"inputs": [
						{
							"internalType": "string",
							"name": "ref",
							"type": "string"
						}
					],
					"name": "getRef",
					"outputs": [
						{
							"internalType": "string",
							"name": "hash",
							"type": "string"
						}
					],
					"stateMutability": "view",
					"type": "function"
				},
				{
					"inputs": [
						{
							"internalType": "uint256",
							"name": "index",
							"type": "uint256"
						}
					],
					"name": "getSnapshot",
					"outputs": [
						{
							"internalType": "string",
							"name": "",
							"type": "string"
						}
					],
					"stateMutability": "view",
					"type": "function"
				},
				{
					"inputs": [],
					"name": "isObsolete",
					"outputs": [
						{
							"internalType": "bool",
							"name": "",
							"type": "bool"
						}
					],
					"stateMutability": "pure",
					"type": "function"
				},
				{
					"inputs": [],
					"name": "refCount",
					"outputs": [
						{
							"internalType": "uint256",
							"name": "",
							"type": "uint256"
						}
					],
					"stateMutability": "view",
					"type": "function"
				},
				{
					"inputs": [
						{
							"internalType": "uint256",
							"name": "index",
							"type": "uint256"
						}
					],
					"name": "refName",
					"outputs": [
						{
							"internalType": "string",
							"name": "ref",
							"type": "string"
						}
					],
					"stateMutability": "view",
					"type": "function"
				},
				{
					"inputs": [],
					"name": "repoInterfaceVersion",
					"outputs": [
						{
							"internalType": "uint256",
							"name": "",
							"type": "uint256"
						}
					],
					"stateMutability": "pure",
					"type": "function"
				},
				{
					"inputs": [
						{
							"internalType": "string",
							"name": "ref",
							"type": "string"
						},
						{
							"internalType": "string",
							"name": "hash",
							"type": "string"
						}
					],
					"name": "setRef",
					"outputs": [],
					"stateMutability": "nonpayable",
					"type": "function"
				},
				{
					"inputs": [],
					"name": "snapshotCount",
					"outputs": [
						{
							"internalType": "uint256",
							"name": "",
							"type": "uint256"
						}
					],
					"stateMutability": "view",
					"type": "function"
				}
			],
			"devdoc": {
				"kind": "dev",
				"methods": {},
				"version": 1
			},
			"evm": {
				"assembly": "    /* \"MangoRepo.sol\":95:2241  contract MangoRepo is MangoRepoInterface {... */\n  mstore(0x40, 0x80)\n    /* \"MangoRepo.sol\":340:389  constructor() {... */\n  callvalue\n  dup1\n  iszero\n  tag_1\n  jumpi\n  0x00\n  dup1\n  revert\ntag_1:\n  pop\n    /* \"MangoRepo.sol\":372:382  msg.sender */\n  caller\n    /* \"MangoRepo.sol\":364:369  owner */\n  0x00\n  dup1\n    /* \"MangoRepo.sol\":364:382  owner = msg.sender */\n  0x0100\n  exp\n  dup2\n  sload\n  dup2\n  0xffffffffffffffffffffffffffffffffffffffff\n  mul\n  not\n  and\n  swap1\n  dup4\n  0xffffffffffffffffffffffffffffffffffffffff\n  and\n  mul\n  or\n  swap1\n  sstore\n  pop\n    /* \"MangoRepo.sol\":95:2241  contract MangoRepo is MangoRepoInterface {... */\n  dataSize(sub_0)\n  dup1\n  dataOffset(sub_0)\n  0x00\n  codecopy\n  0x00\n  return\nstop\n\nsub_0: assembly {\n        /* \"MangoRepo.sol\":95:2241  contract MangoRepo is MangoRepoInterface {... */\n      mstore(0x40, 0x80)\n      callvalue\n      dup1\n      iszero\n      tag_1\n      jumpi\n      0x00\n      dup1\n      revert\n    tag_1:\n      pop\n      jumpi(tag_2, lt(calldatasize, 0x04))\n      shr(0xe0, calldataload(0x00))\n      dup1\n      0x8bb0faee\n      gt\n      tag_13\n      jumpi\n      dup1\n      0x8bb0faee\n      eq\n      tag_8\n      jumpi\n      dup1\n      0x8c79a24d\n      eq\n      tag_9\n      jumpi\n      dup1\n      0x9d170c5d\n      eq\n      tag_10\n      jumpi\n      dup1\n      0xceebe28d\n      eq\n      tag_11\n      jumpi\n      dup1\n      0xfee6d28c\n      eq\n      tag_12\n      jumpi\n      jump(tag_2)\n    tag_13:\n      dup1\n      0x098ab6a1\n      eq\n      tag_3\n      jumpi\n      dup1\n      0x5ae5df8f\n      eq\n      tag_4\n      jumpi\n      dup1\n      0x76f10ad0\n      eq\n      tag_5\n      jumpi\n      dup1\n      0x80d9eaa6\n      eq\n      tag_6\n      jumpi\n      dup1\n      0x8ac6a869\n      eq\n      tag_7\n      jumpi\n    tag_2:\n      0x00\n      dup1\n      revert\n        /* \"MangoRepo.sol\":1803:1906  function snapshotCount() external view override returns (uint) {... */\n    tag_3:\n      tag_14\n      tag_15\n      jump\t// in\n    tag_14:\n      mload(0x40)\n      tag_16\n      swap2\n      swap1\n      tag_17\n      jump\t// in\n    tag_16:\n      mload(0x40)\n      dup1\n      swap2\n      sub\n      swap1\n      return\n        /* \"MangoRepo.sol\":1345:1623  function deleteRef(string memory ref) external override owneronly {... */\n    tag_4:\n      tag_18\n      0x04\n      dup1\n      calldatasize\n      sub\n      dup2\n      add\n      swap1\n      tag_19\n      swap2\n      swap1\n      tag_20\n      jump\t// in\n    tag_19:\n      tag_21\n      jump\t// in\n    tag_18:\n      stop\n        /* \"MangoRepo.sol\":1912:2032  function getSnapshot(uint index) external view override returns (string memory) {... */\n    tag_5:\n      tag_22\n      0x04\n      dup1\n      calldatasize\n      sub\n      dup2\n      add\n      swap1\n      tag_23\n      swap2\n      swap1\n      tag_24\n      jump\t// in\n    tag_23:\n      tag_25\n      jump\t// in\n    tag_22:\n      mload(0x40)\n      tag_26\n      swap2\n      swap1\n      tag_27\n      jump\t// in\n    tag_26:\n      mload(0x40)\n      dup1\n      swap2\n      sub\n      swap1\n      return\n        /* \"MangoRepo.sol\":496:592  function refCount() external view override returns (uint) {... */\n    tag_6:\n      tag_28\n      tag_29\n      jump\t// in\n    tag_28:\n      mload(0x40)\n      tag_30\n      swap2\n      swap1\n      tag_17\n      jump\t// in\n    tag_30:\n      mload(0x40)\n      dup1\n      swap2\n      sub\n      swap1\n      return\n        /* \"MangoRepo.sol\":2150:2239  function isObsolete() external pure override returns (bool) {... */\n    tag_7:\n      tag_31\n      tag_32\n      jump\t// in\n    tag_31:\n      mload(0x40)\n      tag_33\n      swap2\n      swap1\n      tag_34\n      jump\t// in\n    tag_33:\n      mload(0x40)\n      dup1\n      swap2\n      sub\n      swap1\n      return\n        /* \"MangoRepo.sol\":1146:1339  function setRef(string memory ref, string memory hash) external override owneronly {... */\n    tag_8:\n      tag_35\n      0x04\n      dup1\n      calldatasize\n      sub\n      dup2\n      add\n      swap1\n      tag_36\n      swap2\n      swap1\n      tag_37\n      jump\t// in\n    tag_36:\n      tag_38\n      jump\t// in\n    tag_35:\n      stop\n        /* \"MangoRepo.sol\":598:715  function refName(uint index) external view override returns (string memory ref) {... */\n    tag_9:\n      tag_39\n      0x04\n      dup1\n      calldatasize\n      sub\n      dup2\n      add\n      swap1\n      tag_40\n      swap2\n      swap1\n      tag_24\n      jump\t// in\n    tag_40:\n      tag_41\n      jump\t// in\n    tag_39:\n      mload(0x40)\n      tag_42\n      swap2\n      swap1\n      tag_27\n      jump\t// in\n    tag_42:\n      mload(0x40)\n      dup1\n      swap2\n      sub\n      swap1\n      return\n        /* \"MangoRepo.sol\":721:841  function getRef(string memory ref) external view override returns (string memory hash) {... */\n    tag_10:\n      tag_43\n      0x04\n      dup1\n      calldatasize\n      sub\n      dup2\n      add\n      swap1\n      tag_44\n      swap2\n      swap1\n      tag_20\n      jump\t// in\n    tag_44:\n      tag_45\n      jump\t// in\n    tag_43:\n      mload(0x40)\n      tag_46\n      swap2\n      swap1\n      tag_27\n      jump\t// in\n    tag_46:\n      mload(0x40)\n      dup1\n      swap2\n      sub\n      swap1\n      return\n        /* \"MangoRepo.sol\":395:490  function repoInterfaceVersion() external pure override returns (uint) {... */\n    tag_11:\n      tag_47\n      tag_48\n      jump\t// in\n    tag_47:\n      mload(0x40)\n      tag_49\n      swap2\n      swap1\n      tag_17\n      jump\t// in\n    tag_49:\n      mload(0x40)\n      dup1\n      swap2\n      sub\n      swap1\n      return\n        /* \"MangoRepo.sol\":2038:2144  function addSnapshot(string memory hash) external override owneronly {... */\n    tag_12:\n      tag_50\n      0x04\n      dup1\n      calldatasize\n      sub\n      dup2\n      add\n      swap1\n      tag_51\n      swap2\n      swap1\n      tag_20\n      jump\t// in\n    tag_51:\n      tag_52\n      jump\t// in\n    tag_50:\n      stop\n        /* \"MangoRepo.sol\":1803:1906  function snapshotCount() external view override returns (uint) {... */\n    tag_15:\n        /* \"MangoRepo.sol\":1860:1864  uint */\n      0x00\n        /* \"MangoRepo.sol\":1883:1892  snapshots */\n      0x03\n        /* \"MangoRepo.sol\":1883:1899  snapshots.length */\n      dup1\n      sload\n      swap1\n      pop\n        /* \"MangoRepo.sol\":1876:1899  return snapshots.length */\n      swap1\n      pop\n        /* \"MangoRepo.sol\":1803:1906  function snapshotCount() external view override returns (uint) {... */\n      swap1\n      jump\t// out\n        /* \"MangoRepo.sol\":1345:1623  function deleteRef(string memory ref) external override owneronly {... */\n    tag_21:\n        /* \"MangoRepo.sol\":296:301  owner */\n      0x00\n      dup1\n      sload\n      swap1\n      0x0100\n      exp\n      swap1\n      div\n      0xffffffffffffffffffffffffffffffffffffffff\n      and\n        /* \"MangoRepo.sol\":282:301  msg.sender == owner */\n      0xffffffffffffffffffffffffffffffffffffffff\n      and\n        /* \"MangoRepo.sol\":282:292  msg.sender */\n      caller\n        /* \"MangoRepo.sol\":282:301  msg.sender == owner */\n      0xffffffffffffffffffffffffffffffffffffffff\n      and\n      eq\n        /* \"MangoRepo.sol\":274:316  require(msg.sender == owner, \"Owner only\") */\n      tag_55\n      jumpi\n      mload(0x40)\n      0x08c379a000000000000000000000000000000000000000000000000000000000\n      dup2\n      mstore\n      0x04\n      add\n      tag_56\n      swap1\n      tag_57\n      jump\t// in\n    tag_56:\n      mload(0x40)\n      dup1\n      swap2\n      sub\n      swap1\n      revert\n    tag_55:\n        /* \"MangoRepo.sol\":1421:1428  int pos */\n      0x00\n        /* \"MangoRepo.sol\":1431:1445  __findRef(ref) */\n      tag_59\n        /* \"MangoRepo.sol\":1441:1444  ref */\n      dup3\n        /* \"MangoRepo.sol\":1431:1440  __findRef */\n      tag_60\n        /* \"MangoRepo.sol\":1431:1445  __findRef(ref) */\n      jump\t// in\n    tag_59:\n        /* \"MangoRepo.sol\":1421:1445  int pos = __findRef(ref) */\n      swap1\n      pop\n        /* \"MangoRepo.sol\":1466:1468  -1 */\n      0xffffffffffffffffffffffffffffffffffffffffffffffffffffffffffffffff\n        /* \"MangoRepo.sol\":1459:1462  pos */\n      dup2\n        /* \"MangoRepo.sol\":1459:1468  pos != -1 */\n      eq\n        /* \"MangoRepo.sol\":1455:1558  if (pos != -1) {... */\n      tag_61\n      jumpi\n        /* \"MangoRepo.sol\":1524:1547  refKeys[uint(pos)] = \"\" */\n      mload(0x40)\n      dup1\n      0x20\n      add\n      0x40\n      mstore\n      dup1\n      0x00\n      dup2\n      mstore\n      pop\n        /* \"MangoRepo.sol\":1524:1531  refKeys */\n      0x01\n        /* \"MangoRepo.sol\":1537:1540  pos */\n      dup3\n        /* \"MangoRepo.sol\":1524:1542  refKeys[uint(pos)] */\n      dup2\n      sload\n      dup2\n      lt\n      tag_62\n      jumpi\n      tag_63\n      tag_64\n      jump\t// in\n    tag_63:\n    tag_62:\n      swap1\n      0x00\n      mstore\n      keccak256(0x00, 0x20)\n      add\n        /* \"MangoRepo.sol\":1524:1547  refKeys[uint(pos)] = \"\" */\n      swap1\n      dup2\n      tag_66\n      swap2\n      swap1\n      tag_67\n      jump\t// in\n    tag_66:\n      pop\n        /* \"MangoRepo.sol\":1455:1558  if (pos != -1) {... */\n    tag_61:\n        /* \"MangoRepo.sol\":1602:1616  refs[ref] = \"\" */\n      mload(0x40)\n      dup1\n      0x20\n      add\n      0x40\n      mstore\n      dup1\n      0x00\n      dup2\n      mstore\n      pop\n        /* \"MangoRepo.sol\":1602:1606  refs */\n      0x02\n        /* \"MangoRepo.sol\":1607:1610  ref */\n      dup4\n        /* \"MangoRepo.sol\":1602:1611  refs[ref] */\n      mload(0x40)\n      tag_68\n      swap2\n      swap1\n      tag_69\n      jump\t// in\n    tag_68:\n      swap1\n      dup2\n      mstore\n      0x20\n      add\n      mload(0x40)\n      dup1\n      swap2\n      sub\n      swap1\n      keccak256\n        /* \"MangoRepo.sol\":1602:1616  refs[ref] = \"\" */\n      swap1\n      dup2\n      tag_70\n      swap2\n      swap1\n      tag_67\n      jump\t// in\n    tag_70:\n      pop\n        /* \"MangoRepo.sol\":1411:1623  {... */\n      pop\n        /* \"MangoRepo.sol\":1345:1623  function deleteRef(string memory ref) external override owneronly {... */\n      pop\n      jump\t// out\n        /* \"MangoRepo.sol\":1912:2032  function getSnapshot(uint index) external view override returns (string memory) {... */\n    tag_25:\n        /* \"MangoRepo.sol\":1977:1990  string memory */\n      0x60\n        /* \"MangoRepo.sol\":2009:2018  snapshots */\n      0x03\n        /* \"MangoRepo.sol\":2019:2024  index */\n      dup3\n        /* \"MangoRepo.sol\":2009:2025  snapshots[index] */\n      dup2\n      sload\n      dup2\n      lt\n      tag_72\n      jumpi\n      tag_73\n      tag_64\n      jump\t// in\n    tag_73:\n    tag_72:\n      swap1\n      0x00\n      mstore\n      keccak256(0x00, 0x20)\n      add\n        /* \"MangoRepo.sol\":2002:2025  return snapshots[index] */\n      dup1\n      sload\n      tag_75\n      swap1\n      tag_76\n      jump\t// in\n    tag_75:\n      dup1\n      0x1f\n      add\n      0x20\n      dup1\n      swap2\n      div\n      mul\n      0x20\n      add\n      mload(0x40)\n      swap1\n      dup2\n      add\n      0x40\n      mstore\n      dup1\n      swap3\n      swap2\n      swap1\n      dup2\n      dup2\n      mstore\n      0x20\n      add\n      dup3\n      dup1\n      sload\n      tag_77\n      swap1\n      tag_76\n      jump\t// in\n    tag_77:\n      dup1\n      iszero\n      tag_78\n      jumpi\n      dup1\n      0x1f\n      lt\n      tag_79\n      jumpi\n      0x0100\n      dup1\n      dup4\n      sload\n      div\n      mul\n      dup4\n      mstore\n      swap2\n      0x20\n      add\n      swap2\n      jump(tag_78)\n    tag_79:\n      dup3\n      add\n      swap2\n      swap1\n      0x00\n      mstore\n      keccak256(0x00, 0x20)\n      swap1\n    tag_80:\n      dup2\n      sload\n      dup2\n      mstore\n      swap1\n      0x01\n      add\n      swap1\n      0x20\n      add\n      dup1\n      dup4\n      gt\n      tag_80\n      jumpi\n      dup3\n      swap1\n      sub\n      0x1f\n      and\n      dup3\n      add\n      swap2\n    tag_78:\n      pop\n      pop\n      pop\n      pop\n      pop\n      swap1\n      pop\n        /* \"MangoRepo.sol\":1912:2032  function getSnapshot(uint index) external view override returns (string memory) {... */\n      swap2\n      swap1\n      pop\n      jump\t// out\n        /* \"MangoRepo.sol\":496:592  function refCount() external view override returns (uint) {... */\n    tag_29:\n        /* \"MangoRepo.sol\":548:552  uint */\n      0x00\n        /* \"MangoRepo.sol\":571:578  refKeys */\n      0x01\n        /* \"MangoRepo.sol\":571:585  refKeys.length */\n      dup1\n      sload\n      swap1\n      pop\n        /* \"MangoRepo.sol\":564:585  return refKeys.length */\n      swap1\n      pop\n        /* \"MangoRepo.sol\":496:592  function refCount() external view override returns (uint) {... */\n      swap1\n      jump\t// out\n        /* \"MangoRepo.sol\":2150:2239  function isObsolete() external pure override returns (bool) {... */\n    tag_32:\n        /* \"MangoRepo.sol\":2204:2208  bool */\n      0x00\n        /* \"MangoRepo.sol\":2150:2239  function isObsolete() external pure override returns (bool) {... */\n      swap1\n      jump\t// out\n        /* \"MangoRepo.sol\":1146:1339  function setRef(string memory ref, string memory hash) external override owneronly {... */\n    tag_38:\n        /* \"MangoRepo.sol\":296:301  owner */\n      0x00\n      dup1\n      sload\n      swap1\n      0x0100\n      exp\n      swap1\n      div\n      0xffffffffffffffffffffffffffffffffffffffff\n      and\n        /* \"MangoRepo.sol\":282:301  msg.sender == owner */\n      0xffffffffffffffffffffffffffffffffffffffff\n      and\n        /* \"MangoRepo.sol\":282:292  msg.sender */\n      caller\n        /* \"MangoRepo.sol\":282:301  msg.sender == owner */\n      0xffffffffffffffffffffffffffffffffffffffff\n      and\n      eq\n        /* \"MangoRepo.sol\":274:316  require(msg.sender == owner, \"Owner only\") */\n      tag_84\n      jumpi\n      mload(0x40)\n      0x08c379a000000000000000000000000000000000000000000000000000000000\n      dup2\n      mstore\n      0x04\n      add\n      tag_85\n      swap1\n      tag_57\n      jump\t// in\n    tag_85:\n      mload(0x40)\n      dup1\n      swap2\n      sub\n      swap1\n      revert\n    tag_84:\n        /* \"MangoRepo.sol\":1261:1263  -1 */\n      0xffffffffffffffffffffffffffffffffffffffffffffffffffffffffffffffff\n        /* \"MangoRepo.sol\":1243:1257  __findRef(ref) */\n      tag_87\n        /* \"MangoRepo.sol\":1253:1256  ref */\n      dup4\n        /* \"MangoRepo.sol\":1243:1252  __findRef */\n      tag_60\n        /* \"MangoRepo.sol\":1243:1257  __findRef(ref) */\n      jump\t// in\n    tag_87:\n        /* \"MangoRepo.sol\":1243:1263  __findRef(ref) == -1 */\n      sub\n        /* \"MangoRepo.sol\":1239:1307  if (__findRef(ref) == -1) {... */\n      tag_88\n      jumpi\n        /* \"MangoRepo.sol\":1279:1286  refKeys */\n      0x01\n        /* \"MangoRepo.sol\":1292:1295  ref */\n      dup3\n        /* \"MangoRepo.sol\":1279:1296  refKeys.push(ref) */\n      swap1\n      dup1\n      0x01\n      dup2\n      sload\n      add\n      dup1\n      dup3\n      sstore\n      dup1\n      swap2\n      pop\n      pop\n      0x01\n      swap1\n      sub\n      swap1\n      0x00\n      mstore\n      keccak256(0x00, 0x20)\n      add\n      0x00\n      swap1\n      swap2\n      swap1\n      swap2\n      swap1\n      swap2\n      pop\n      swap1\n      dup2\n      tag_90\n      swap2\n      swap1\n      tag_67\n      jump\t// in\n    tag_90:\n      pop\n        /* \"MangoRepo.sol\":1239:1307  if (__findRef(ref) == -1) {... */\n    tag_88:\n        /* \"MangoRepo.sol\":1328:1332  hash */\n      dup1\n        /* \"MangoRepo.sol\":1316:1320  refs */\n      0x02\n        /* \"MangoRepo.sol\":1321:1324  ref */\n      dup4\n        /* \"MangoRepo.sol\":1316:1325  refs[ref] */\n      mload(0x40)\n      tag_91\n      swap2\n      swap1\n      tag_69\n      jump\t// in\n    tag_91:\n      swap1\n      dup2\n      mstore\n      0x20\n      add\n      mload(0x40)\n      dup1\n      swap2\n      sub\n      swap1\n      keccak256\n        /* \"MangoRepo.sol\":1316:1332  refs[ref] = hash */\n      swap1\n      dup2\n      tag_92\n      swap2\n      swap1\n      tag_67\n      jump\t// in\n    tag_92:\n      pop\n        /* \"MangoRepo.sol\":1146:1339  function setRef(string memory ref, string memory hash) external override owneronly {... */\n      pop\n      pop\n      jump\t// out\n        /* \"MangoRepo.sol\":598:715  function refName(uint index) external view override returns (string memory ref) {... */\n    tag_41:\n        /* \"MangoRepo.sol\":659:676  string memory ref */\n      0x60\n        /* \"MangoRepo.sol\":694:701  refKeys */\n      0x01\n        /* \"MangoRepo.sol\":702:707  index */\n      dup3\n        /* \"MangoRepo.sol\":694:708  refKeys[index] */\n      dup2\n      sload\n      dup2\n      lt\n      tag_94\n      jumpi\n      tag_95\n      tag_64\n      jump\t// in\n    tag_95:\n    tag_94:\n      swap1\n      0x00\n      mstore\n      keccak256(0x00, 0x20)\n      add\n        /* \"MangoRepo.sol\":688:708  ref = refKeys[index] */\n      dup1\n      sload\n      tag_97\n      swap1\n      tag_76\n      jump\t// in\n    tag_97:\n      dup1\n      0x1f\n      add\n      0x20\n      dup1\n      swap2\n      div\n      mul\n      0x20\n      add\n      mload(0x40)\n      swap1\n      dup2\n      add\n      0x40\n      mstore\n      dup1\n      swap3\n      swap2\n      swap1\n      dup2\n      dup2\n      mstore\n      0x20\n      add\n      dup3\n      dup1\n      sload\n      tag_98\n      swap1\n      tag_76\n      jump\t// in\n    tag_98:\n      dup1\n      iszero\n      tag_99\n      jumpi\n      dup1\n      0x1f\n      lt\n      tag_100\n      jumpi\n      0x0100\n      dup1\n      dup4\n      sload\n      div\n      mul\n      dup4\n      mstore\n      swap2\n      0x20\n      add\n      swap2\n      jump(tag_99)\n    tag_100:\n      dup3\n      add\n      swap2\n      swap1\n      0x00\n      mstore\n      keccak256(0x00, 0x20)\n      swap1\n    tag_101:\n      dup2\n      sload\n      dup2\n      mstore\n      swap1\n      0x01\n      add\n      swap1\n      0x20\n      add\n      dup1\n      dup4\n      gt\n      tag_101\n      jumpi\n      dup3\n      swap1\n      sub\n      0x1f\n      and\n      dup3\n      add\n      swap2\n    tag_99:\n      pop\n      pop\n      pop\n      pop\n      pop\n      swap1\n      pop\n        /* \"MangoRepo.sol\":598:715  function refName(uint index) external view override returns (string memory ref) {... */\n      swap2\n      swap1\n      pop\n      jump\t// out\n        /* \"MangoRepo.sol\":721:841  function getRef(string memory ref) external view override returns (string memory hash) {... */\n    tag_45:\n        /* \"MangoRepo.sol\":788:806  string memory hash */\n      0x60\n        /* \"MangoRepo.sol\":825:829  refs */\n      0x02\n        /* \"MangoRepo.sol\":830:833  ref */\n      dup3\n        /* \"MangoRepo.sol\":825:834  refs[ref] */\n      mload(0x40)\n      tag_103\n      swap2\n      swap1\n      tag_69\n      jump\t// in\n    tag_103:\n      swap1\n      dup2\n      mstore\n      0x20\n      add\n      mload(0x40)\n      dup1\n      swap2\n      sub\n      swap1\n      keccak256\n        /* \"MangoRepo.sol\":818:834  hash = refs[ref] */\n      dup1\n      sload\n      tag_104\n      swap1\n      tag_76\n      jump\t// in\n    tag_104:\n      dup1\n      0x1f\n      add\n      0x20\n      dup1\n      swap2\n      div\n      mul\n      0x20\n      add\n      mload(0x40)\n      swap1\n      dup2\n      add\n      0x40\n      mstore\n      dup1\n      swap3\n      swap2\n      swap1\n      dup2\n      dup2\n      mstore\n      0x20\n      add\n      dup3\n      dup1\n      sload\n      tag_105\n      swap1\n      tag_76\n      jump\t// in\n    tag_105:\n      dup1\n      iszero\n      tag_106\n      jumpi\n      dup1\n      0x1f\n      lt\n      tag_107\n      jumpi\n      0x0100\n      dup1\n      dup4\n      sload\n      div\n      mul\n      dup4\n      mstore\n      swap2\n      0x20\n      add\n      swap2\n      jump(tag_106)\n    tag_107:\n      dup3\n      add\n      swap2\n      swap1\n      0x00\n      mstore\n      keccak256(0x00, 0x20)\n      swap1\n    tag_108:\n      dup2\n      sload\n      dup2\n      mstore\n      swap1\n      0x01\n      add\n      swap1\n      0x20\n      add\n      dup1\n      dup4\n      gt\n      tag_108\n      jumpi\n      dup3\n      swap1\n      sub\n      0x1f\n      and\n      dup3\n      add\n      swap2\n    tag_106:\n      pop\n      pop\n      pop\n      pop\n      pop\n      swap1\n      pop\n        /* \"MangoRepo.sol\":721:841  function getRef(string memory ref) external view override returns (string memory hash) {... */\n      swap2\n      swap1\n      pop\n      jump\t// out\n        /* \"MangoRepo.sol\":395:490  function repoInterfaceVersion() external pure override returns (uint) {... */\n    tag_48:\n        /* \"MangoRepo.sol\":459:463  uint */\n      0x00\n        /* \"MangoRepo.sol\":482:483  1 */\n      0x01\n        /* \"MangoRepo.sol\":475:483  return 1 */\n      swap1\n      pop\n        /* \"MangoRepo.sol\":395:490  function repoInterfaceVersion() external pure override returns (uint) {... */\n      swap1\n      jump\t// out\n        /* \"MangoRepo.sol\":2038:2144  function addSnapshot(string memory hash) external override owneronly {... */\n    tag_52:\n        /* \"MangoRepo.sol\":296:301  owner */\n      0x00\n      dup1\n      sload\n      swap1\n      0x0100\n      exp\n      swap1\n      div\n      0xffffffffffffffffffffffffffffffffffffffff\n      and\n        /* \"MangoRepo.sol\":282:301  msg.sender == owner */\n      0xffffffffffffffffffffffffffffffffffffffff\n      and\n        /* \"MangoRepo.sol\":282:292  msg.sender */\n      caller\n        /* \"MangoRepo.sol\":282:301  msg.sender == owner */\n      0xffffffffffffffffffffffffffffffffffffffff\n      and\n      eq\n        /* \"MangoRepo.sol\":274:316  require(msg.sender == owner, \"Owner only\") */\n      tag_111\n      jumpi\n      mload(0x40)\n      0x08c379a000000000000000000000000000000000000000000000000000000000\n      dup2\n      mstore\n      0x04\n      add\n      tag_112\n      swap1\n      tag_57\n      jump\t// in\n    tag_112:\n      mload(0x40)\n      dup1\n      swap2\n      sub\n      swap1\n      revert\n    tag_111:\n        /* \"MangoRepo.sol\":2117:2126  snapshots */\n      0x03\n        /* \"MangoRepo.sol\":2132:2136  hash */\n      dup2\n        /* \"MangoRepo.sol\":2117:2137  snapshots.push(hash) */\n      swap1\n      dup1\n      0x01\n      dup2\n      sload\n      add\n      dup1\n      dup3\n      sstore\n      dup1\n      swap2\n      pop\n      pop\n      0x01\n      swap1\n      sub\n      swap1\n      0x00\n      mstore\n      keccak256(0x00, 0x20)\n      add\n      0x00\n      swap1\n      swap2\n      swap1\n      swap2\n      swap1\n      swap2\n      pop\n      swap1\n      dup2\n      tag_115\n      swap2\n      swap1\n      tag_67\n      jump\t// in\n    tag_115:\n      pop\n        /* \"MangoRepo.sol\":2038:2144  function addSnapshot(string memory hash) external override owneronly {... */\n      pop\n      jump\t// out\n        /* \"MangoRepo.sol\":847:1140  function __findRef(string memory ref) private view returns (int) {... */\n    tag_60:\n        /* \"MangoRepo.sol\":907:910  int */\n      0x00\n        /* \"MangoRepo.sol\":927:933  uint i */\n      dup1\n        /* \"MangoRepo.sol\":936:937  0 */\n      0x00\n        /* \"MangoRepo.sol\":927:937  uint i = 0 */\n      swap1\n      pop\n        /* \"MangoRepo.sol\":922:1115  for (uint i = 0; i < refKeys.length; i++) {... */\n    tag_117:\n        /* \"MangoRepo.sol\":943:950  refKeys */\n      0x01\n        /* \"MangoRepo.sol\":943:957  refKeys.length */\n      dup1\n      sload\n      swap1\n      pop\n        /* \"MangoRepo.sol\":939:940  i */\n      dup2\n        /* \"MangoRepo.sol\":939:957  i < refKeys.length */\n      lt\n        /* \"MangoRepo.sol\":922:1115  for (uint i = 0; i < refKeys.length; i++) {... */\n      iszero\n      tag_118\n      jumpi\n        /* \"MangoRepo.sol\":1052:1055  ref */\n      dup3\n        /* \"MangoRepo.sol\":1035:1056  abi.encodePacked(ref) */\n      add(0x20, mload(0x40))\n      tag_120\n      swap2\n      swap1\n      tag_69\n      jump\t// in\n    tag_120:\n      mload(0x40)\n      0x20\n      dup2\n      dup4\n      sub\n      sub\n      dup2\n      mstore\n      swap1\n      0x40\n      mstore\n        /* \"MangoRepo.sol\":1025:1057  keccak256(abi.encodePacked(ref)) */\n      dup1\n      mload\n      swap1\n      0x20\n      add\n      keccak256\n        /* \"MangoRepo.sol\":1009:1016  refKeys */\n      0x01\n        /* \"MangoRepo.sol\":1017:1018  i */\n      dup3\n        /* \"MangoRepo.sol\":1009:1019  refKeys[i] */\n      dup2\n      sload\n      dup2\n      lt\n      tag_121\n      jumpi\n      tag_122\n      tag_64\n      jump\t// in\n    tag_122:\n    tag_121:\n      swap1\n      0x00\n      mstore\n      keccak256(0x00, 0x20)\n      add\n        /* \"MangoRepo.sol\":992:1020  abi.encodePacked(refKeys[i]) */\n      add(0x20, mload(0x40))\n      tag_124\n      swap2\n      swap1\n      tag_125\n      jump\t// in\n    tag_124:\n      mload(0x40)\n      0x20\n      dup2\n      dup4\n      sub\n      sub\n      dup2\n      mstore\n      swap1\n      0x40\n      mstore\n        /* \"MangoRepo.sol\":982:1021  keccak256(abi.encodePacked(refKeys[i])) */\n      dup1\n      mload\n      swap1\n      0x20\n      add\n      keccak256\n        /* \"MangoRepo.sol\":982:1057  keccak256(abi.encodePacked(refKeys[i])) == keccak256(abi.encodePacked(ref)) */\n      sub\n        /* \"MangoRepo.sol\":978:1105  if (keccak256(abi.encodePacked(refKeys[i])) == keccak256(abi.encodePacked(ref))) {... */\n      tag_126\n      jumpi\n        /* \"MangoRepo.sol\":1088:1089  i */\n      dup1\n        /* \"MangoRepo.sol\":1077:1090  return int(i) */\n      swap2\n      pop\n      pop\n      jump(tag_116)\n        /* \"MangoRepo.sol\":978:1105  if (keccak256(abi.encodePacked(refKeys[i])) == keccak256(abi.encodePacked(ref))) {... */\n    tag_126:\n        /* \"MangoRepo.sol\":959:962  i++ */\n      dup1\n      dup1\n      0x01\n      add\n      swap2\n      pop\n      pop\n        /* \"MangoRepo.sol\":922:1115  for (uint i = 0; i < refKeys.length; i++) {... */\n      jump(tag_117)\n    tag_118:\n      pop\n        /* \"MangoRepo.sol\":1131:1133  -1 */\n      0xffffffffffffffffffffffffffffffffffffffffffffffffffffffffffffffff\n        /* \"MangoRepo.sol\":1124:1133  return -1 */\n      swap1\n      pop\n        /* \"MangoRepo.sol\":847:1140  function __findRef(string memory ref) private view returns (int) {... */\n    tag_116:\n      swap2\n      swap1\n      pop\n      jump\t// out\n        /* \"#utility.yul\":7:84   */\n    tag_127:\n        /* \"#utility.yul\":44:51   */\n      0x00\n        /* \"#utility.yul\":73:78   */\n      dup2\n        /* \"#utility.yul\":62:78   */\n      swap1\n      pop\n        /* \"#utility.yul\":7:84   */\n      swap2\n      swap1\n      pop\n      jump\t// out\n        /* \"#utility.yul\":90:208   */\n    tag_128:\n        /* \"#utility.yul\":177:201   */\n      tag_174\n        /* \"#utility.yul\":195:200   */\n      dup2\n        /* \"#utility.yul\":177:201   */\n      tag_127\n      jump\t// in\n    tag_174:\n        /* \"#utility.yul\":172:175   */\n      dup3\n        /* \"#utility.yul\":165:202   */\n      mstore\n        /* \"#utility.yul\":90:208   */\n      pop\n      pop\n      jump\t// out\n        /* \"#utility.yul\":214:436   */\n    tag_17:\n        /* \"#utility.yul\":307:311   */\n      0x00\n        /* \"#utility.yul\":345:347   */\n      0x20\n        /* \"#utility.yul\":334:343   */\n      dup3\n        /* \"#utility.yul\":330:348   */\n      add\n        /* \"#utility.yul\":322:348   */\n      swap1\n      pop\n        /* \"#utility.yul\":358:429   */\n      tag_176\n        /* \"#utility.yul\":426:427   */\n      0x00\n        /* \"#utility.yul\":415:424   */\n      dup4\n        /* \"#utility.yul\":411:428   */\n      add\n        /* \"#utility.yul\":402:408   */\n      dup5\n        /* \"#utility.yul\":358:429   */\n      tag_128\n      jump\t// in\n    tag_176:\n        /* \"#utility.yul\":214:436   */\n      swap3\n      swap2\n      pop\n      pop\n      jump\t// out\n        /* \"#utility.yul\":442:517   */\n    tag_129:\n        /* \"#utility.yul\":475:481   */\n      0x00\n        /* \"#utility.yul\":508:510   */\n      0x40\n        /* \"#utility.yul\":502:511   */\n      mload\n        /* \"#utility.yul\":492:511   */\n      swap1\n      pop\n        /* \"#utility.yul\":442:517   */\n      swap1\n      jump\t// out\n        /* \"#utility.yul\":523:640   */\n    tag_130:\n        /* \"#utility.yul\":632:633   */\n      0x00\n        /* \"#utility.yul\":629:630   */\n      dup1\n        /* \"#utility.yul\":622:634   */\n      revert\n        /* \"#utility.yul\":646:763   */\n    tag_131:\n        /* \"#utility.yul\":755:756   */\n      0x00\n        /* \"#utility.yul\":752:753   */\n      dup1\n        /* \"#utility.yul\":745:757   */\n      revert\n        /* \"#utility.yul\":769:886   */\n    tag_132:\n        /* \"#utility.yul\":878:879   */\n      0x00\n        /* \"#utility.yul\":875:876   */\n      dup1\n        /* \"#utility.yul\":868:880   */\n      revert\n        /* \"#utility.yul\":892:1009   */\n    tag_133:\n        /* \"#utility.yul\":1001:1002   */\n      0x00\n        /* \"#utility.yul\":998:999   */\n      dup1\n        /* \"#utility.yul\":991:1003   */\n      revert\n        /* \"#utility.yul\":1015:1117   */\n    tag_134:\n        /* \"#utility.yul\":1056:1062   */\n      0x00\n        /* \"#utility.yul\":1107:1109   */\n      0x1f\n        /* \"#utility.yul\":1103:1110   */\n      not\n        /* \"#utility.yul\":1098:1100   */\n      0x1f\n        /* \"#utility.yul\":1091:1096   */\n      dup4\n        /* \"#utility.yul\":1087:1101   */\n      add\n        /* \"#utility.yul\":1083:1111   */\n      and\n        /* \"#utility.yul\":1073:1111   */\n      swap1\n      pop\n        /* \"#utility.yul\":1015:1117   */\n      swap2\n      swap1\n      pop\n      jump\t// out\n        /* \"#utility.yul\":1123:1303   */\n    tag_135:\n        /* \"#utility.yul\":1171:1248   */\n      0x4e487b7100000000000000000000000000000000000000000000000000000000\n        /* \"#utility.yul\":1168:1169   */\n      0x00\n        /* \"#utility.yul\":1161:1249   */\n      mstore\n        /* \"#utility.yul\":1268:1272   */\n      0x41\n        /* \"#utility.yul\":1265:1266   */\n      0x04\n        /* \"#utility.yul\":1258:1273   */\n      mstore\n        /* \"#utility.yul\":1292:1296   */\n      0x24\n        /* \"#utility.yul\":1289:1290   */\n      0x00\n        /* \"#utility.yul\":1282:1297   */\n      revert\n        /* \"#utility.yul\":1309:1590   */\n    tag_136:\n        /* \"#utility.yul\":1392:1419   */\n      tag_185\n        /* \"#utility.yul\":1414:1418   */\n      dup3\n        /* \"#utility.yul\":1392:1419   */\n      tag_134\n      jump\t// in\n    tag_185:\n        /* \"#utility.yul\":1384:1390   */\n      dup2\n        /* \"#utility.yul\":1380:1420   */\n      add\n        /* \"#utility.yul\":1522:1528   */\n      dup2\n        /* \"#utility.yul\":1510:1520   */\n      dup2\n        /* \"#utility.yul\":1507:1529   */\n      lt\n        /* \"#utility.yul\":1486:1504   */\n      0xffffffffffffffff\n        /* \"#utility.yul\":1474:1484   */\n      dup3\n        /* \"#utility.yul\":1471:1505   */\n      gt\n        /* \"#utility.yul\":1468:1530   */\n      or\n        /* \"#utility.yul\":1465:1553   */\n      iszero\n      tag_186\n      jumpi\n        /* \"#utility.yul\":1533:1551   */\n      tag_187\n      tag_135\n      jump\t// in\n    tag_187:\n        /* \"#utility.yul\":1465:1553   */\n    tag_186:\n        /* \"#utility.yul\":1573:1583   */\n      dup1\n        /* \"#utility.yul\":1569:1571   */\n      0x40\n        /* \"#utility.yul\":1562:1584   */\n      mstore\n        /* \"#utility.yul\":1352:1590   */\n      pop\n        /* \"#utility.yul\":1309:1590   */\n      pop\n      pop\n      jump\t// out\n        /* \"#utility.yul\":1596:1725   */\n    tag_137:\n        /* \"#utility.yul\":1630:1636   */\n      0x00\n        /* \"#utility.yul\":1657:1677   */\n      tag_189\n      tag_129\n      jump\t// in\n    tag_189:\n        /* \"#utility.yul\":1647:1677   */\n      swap1\n      pop\n        /* \"#utility.yul\":1686:1719   */\n      tag_190\n        /* \"#utility.yul\":1714:1718   */\n      dup3\n        /* \"#utility.yul\":1706:1712   */\n      dup3\n        /* \"#utility.yul\":1686:1719   */\n      tag_136\n      jump\t// in\n    tag_190:\n        /* \"#utility.yul\":1596:1725   */\n      swap2\n      swap1\n      pop\n      jump\t// out\n        /* \"#utility.yul\":1731:2039   */\n    tag_138:\n        /* \"#utility.yul\":1793:1797   */\n      0x00\n        /* \"#utility.yul\":1883:1901   */\n      0xffffffffffffffff\n        /* \"#utility.yul\":1875:1881   */\n      dup3\n        /* \"#utility.yul\":1872:1902   */\n      gt\n        /* \"#utility.yul\":1869:1925   */\n      iszero\n      tag_192\n      jumpi\n        /* \"#utility.yul\":1905:1923   */\n      tag_193\n      tag_135\n      jump\t// in\n    tag_193:\n        /* \"#utility.yul\":1869:1925   */\n    tag_192:\n        /* \"#utility.yul\":1943:1972   */\n      tag_194\n        /* \"#utility.yul\":1965:1971   */\n      dup3\n        /* \"#utility.yul\":1943:1972   */\n      tag_134\n      jump\t// in\n    tag_194:\n        /* \"#utility.yul\":1935:1972   */\n      swap1\n      pop\n        /* \"#utility.yul\":2027:2031   */\n      0x20\n        /* \"#utility.yul\":2021:2025   */\n      dup2\n        /* \"#utility.yul\":2017:2032   */\n      add\n        /* \"#utility.yul\":2009:2032   */\n      swap1\n      pop\n        /* \"#utility.yul\":1731:2039   */\n      swap2\n      swap1\n      pop\n      jump\t// out\n        /* \"#utility.yul\":2045:2193   */\n    tag_139:\n        /* \"#utility.yul\":2143:2149   */\n      dup3\n        /* \"#utility.yul\":2138:2141   */\n      dup2\n        /* \"#utility.yul\":2133:2136   */\n      dup4\n        /* \"#utility.yul\":2120:2150   */\n      calldatacopy\n        /* \"#utility.yul\":2184:2185   */\n      0x00\n        /* \"#utility.yul\":2175:2181   */\n      dup4\n        /* \"#utility.yul\":2170:2173   */\n      dup4\n        /* \"#utility.yul\":2166:2182   */\n      add\n        /* \"#utility.yul\":2159:2186   */\n      mstore\n        /* \"#utility.yul\":2045:2193   */\n      pop\n      pop\n      pop\n      jump\t// out\n        /* \"#utility.yul\":2199:2624   */\n    tag_140:\n        /* \"#utility.yul\":2277:2282   */\n      0x00\n        /* \"#utility.yul\":2302:2368   */\n      tag_197\n        /* \"#utility.yul\":2318:2367   */\n      tag_198\n        /* \"#utility.yul\":2360:2366   */\n      dup5\n        /* \"#utility.yul\":2318:2367   */\n      tag_138\n      jump\t// in\n    tag_198:\n        /* \"#utility.yul\":2302:2368   */\n      tag_137\n      jump\t// in\n    tag_197:\n        /* \"#utility.yul\":2293:2368   */\n      swap1\n      pop\n        /* \"#utility.yul\":2391:2397   */\n      dup3\n        /* \"#utility.yul\":2384:2389   */\n      dup2\n        /* \"#utility.yul\":2377:2398   */\n      mstore\n        /* \"#utility.yul\":2429:2433   */\n      0x20\n        /* \"#utility.yul\":2422:2427   */\n      dup2\n        /* \"#utility.yul\":2418:2434   */\n      add\n        /* \"#utility.yul\":2467:2470   */\n      dup5\n        /* \"#utility.yul\":2458:2464   */\n      dup5\n        /* \"#utility.yul\":2453:2456   */\n      dup5\n        /* \"#utility.yul\":2449:2465   */\n      add\n        /* \"#utility.yul\":2446:2471   */\n      gt\n        /* \"#utility.yul\":2443:2555   */\n      iszero\n      tag_199\n      jumpi\n        /* \"#utility.yul\":2474:2553   */\n      tag_200\n      tag_133\n      jump\t// in\n    tag_200:\n        /* \"#utility.yul\":2443:2555   */\n    tag_199:\n        /* \"#utility.yul\":2564:2618   */\n      tag_201\n        /* \"#utility.yul\":2611:2617   */\n      dup5\n        /* \"#utility.yul\":2606:2609   */\n      dup3\n        /* \"#utility.yul\":2601:2604   */\n      dup6\n        /* \"#utility.yul\":2564:2618   */\n      tag_139\n      jump\t// in\n    tag_201:\n        /* \"#utility.yul\":2283:2624   */\n      pop\n        /* \"#utility.yul\":2199:2624   */\n      swap4\n      swap3\n      pop\n      pop\n      pop\n      jump\t// out\n        /* \"#utility.yul\":2644:2984   */\n    tag_141:\n        /* \"#utility.yul\":2700:2705   */\n      0x00\n        /* \"#utility.yul\":2749:2752   */\n      dup3\n        /* \"#utility.yul\":2742:2746   */\n      0x1f\n        /* \"#utility.yul\":2734:2740   */\n      dup4\n        /* \"#utility.yul\":2730:2747   */\n      add\n        /* \"#utility.yul\":2726:2753   */\n      slt\n        /* \"#utility.yul\":2716:2838   */\n      tag_203\n      jumpi\n        /* \"#utility.yul\":2757:2836   */\n      tag_204\n      tag_132\n      jump\t// in\n    tag_204:\n        /* \"#utility.yul\":2716:2838   */\n    tag_203:\n        /* \"#utility.yul\":2874:2880   */\n      dup2\n        /* \"#utility.yul\":2861:2881   */\n      calldataload\n        /* \"#utility.yul\":2899:2978   */\n      tag_205\n        /* \"#utility.yul\":2974:2977   */\n      dup5\n        /* \"#utility.yul\":2966:2972   */\n      dup3\n        /* \"#utility.yul\":2959:2963   */\n      0x20\n        /* \"#utility.yul\":2951:2957   */\n      dup7\n        /* \"#utility.yul\":2947:2964   */\n      add\n        /* \"#utility.yul\":2899:2978   */\n      tag_140\n      jump\t// in\n    tag_205:\n        /* \"#utility.yul\":2890:2978   */\n      swap2\n      pop\n        /* \"#utility.yul\":2706:2984   */\n      pop\n        /* \"#utility.yul\":2644:2984   */\n      swap3\n      swap2\n      pop\n      pop\n      jump\t// out\n        /* \"#utility.yul\":2990:3499   */\n    tag_20:\n        /* \"#utility.yul\":3059:3065   */\n      0x00\n        /* \"#utility.yul\":3108:3110   */\n      0x20\n        /* \"#utility.yul\":3096:3105   */\n      dup3\n        /* \"#utility.yul\":3087:3094   */\n      dup5\n        /* \"#utility.yul\":3083:3106   */\n      sub\n        /* \"#utility.yul\":3079:3111   */\n      slt\n        /* \"#utility.yul\":3076:3195   */\n      iszero\n      tag_207\n      jumpi\n        /* \"#utility.yul\":3114:3193   */\n      tag_208\n      tag_130\n      jump\t// in\n    tag_208:\n        /* \"#utility.yul\":3076:3195   */\n    tag_207:\n        /* \"#utility.yul\":3262:3263   */\n      0x00\n        /* \"#utility.yul\":3251:3260   */\n      dup3\n        /* \"#utility.yul\":3247:3264   */\n      add\n        /* \"#utility.yul\":3234:3265   */\n      calldataload\n        /* \"#utility.yul\":3292:3310   */\n      0xffffffffffffffff\n        /* \"#utility.yul\":3284:3290   */\n      dup2\n        /* \"#utility.yul\":3281:3311   */\n      gt\n        /* \"#utility.yul\":3278:3395   */\n      iszero\n      tag_209\n      jumpi\n        /* \"#utility.yul\":3314:3393   */\n      tag_210\n      tag_131\n      jump\t// in\n    tag_210:\n        /* \"#utility.yul\":3278:3395   */\n    tag_209:\n        /* \"#utility.yul\":3419:3482   */\n      tag_211\n        /* \"#utility.yul\":3474:3481   */\n      dup5\n        /* \"#utility.yul\":3465:3471   */\n      dup3\n        /* \"#utility.yul\":3454:3463   */\n      dup6\n        /* \"#utility.yul\":3450:3472   */\n      add\n        /* \"#utility.yul\":3419:3482   */\n      tag_141\n      jump\t// in\n    tag_211:\n        /* \"#utility.yul\":3409:3482   */\n      swap2\n      pop\n        /* \"#utility.yul\":3205:3492   */\n      pop\n        /* \"#utility.yul\":2990:3499   */\n      swap3\n      swap2\n      pop\n      pop\n      jump\t// out\n        /* \"#utility.yul\":3505:3627   */\n    tag_142:\n        /* \"#utility.yul\":3578:3602   */\n      tag_213\n        /* \"#utility.yul\":3596:3601   */\n      dup2\n        /* \"#utility.yul\":3578:3602   */\n      tag_127\n      jump\t// in\n    tag_213:\n        /* \"#utility.yul\":3571:3576   */\n      dup2\n        /* \"#utility.yul\":3568:3603   */\n      eq\n        /* \"#utility.yul\":3558:3621   */\n      tag_214\n      jumpi\n        /* \"#utility.yul\":3617:3618   */\n      0x00\n        /* \"#utility.yul\":3614:3615   */\n      dup1\n        /* \"#utility.yul\":3607:3619   */\n      revert\n        /* \"#utility.yul\":3558:3621   */\n    tag_214:\n        /* \"#utility.yul\":3505:3627   */\n      pop\n      jump\t// out\n        /* \"#utility.yul\":3633:3772   */\n    tag_143:\n        /* \"#utility.yul\":3679:3684   */\n      0x00\n        /* \"#utility.yul\":3717:3723   */\n      dup2\n        /* \"#utility.yul\":3704:3724   */\n      calldataload\n        /* \"#utility.yul\":3695:3724   */\n      swap1\n      pop\n        /* \"#utility.yul\":3733:3766   */\n      tag_216\n        /* \"#utility.yul\":3760:3765   */\n      dup2\n        /* \"#utility.yul\":3733:3766   */\n      tag_142\n      jump\t// in\n    tag_216:\n        /* \"#utility.yul\":3633:3772   */\n      swap3\n      swap2\n      pop\n      pop\n      jump\t// out\n        /* \"#utility.yul\":3778:4107   */\n    tag_24:\n        /* \"#utility.yul\":3837:3843   */\n      0x00\n        /* \"#utility.yul\":3886:3888   */\n      0x20\n        /* \"#utility.yul\":3874:3883   */\n      dup3\n        /* \"#utility.yul\":3865:3872   */\n      dup5\n        /* \"#utility.yul\":3861:3884   */\n      sub\n        /* \"#utility.yul\":3857:3889   */\n      slt\n        /* \"#utility.yul\":3854:3973   */\n      iszero\n      tag_218\n      jumpi\n        /* \"#utility.yul\":3892:3971   */\n      tag_219\n      tag_130\n      jump\t// in\n    tag_219:\n        /* \"#utility.yul\":3854:3973   */\n    tag_218:\n        /* \"#utility.yul\":4012:4013   */\n      0x00\n        /* \"#utility.yul\":4037:4090   */\n      tag_220\n        /* \"#utility.yul\":4082:4089   */\n      dup5\n        /* \"#utility.yul\":4073:4079   */\n      dup3\n        /* \"#utility.yul\":4062:4071   */\n      dup6\n        /* \"#utility.yul\":4058:4080   */\n      add\n        /* \"#utility.yul\":4037:4090   */\n      tag_143\n      jump\t// in\n    tag_220:\n        /* \"#utility.yul\":4027:4090   */\n      swap2\n      pop\n        /* \"#utility.yul\":3983:4100   */\n      pop\n        /* \"#utility.yul\":3778:4107   */\n      swap3\n      swap2\n      pop\n      pop\n      jump\t// out\n        /* \"#utility.yul\":4113:4212   */\n    tag_144:\n        /* \"#utility.yul\":4165:4171   */\n      0x00\n        /* \"#utility.yul\":4199:4204   */\n      dup2\n        /* \"#utility.yul\":4193:4205   */\n      mload\n        /* \"#utility.yul\":4183:4205   */\n      swap1\n      pop\n        /* \"#utility.yul\":4113:4212   */\n      swap2\n      swap1\n      pop\n      jump\t// out\n        /* \"#utility.yul\":4218:4387   */\n    tag_145:\n        /* \"#utility.yul\":4302:4313   */\n      0x00\n        /* \"#utility.yul\":4336:4342   */\n      dup3\n        /* \"#utility.yul\":4331:4334   */\n      dup3\n        /* \"#utility.yul\":4324:4343   */\n      mstore\n        /* \"#utility.yul\":4376:4380   */\n      0x20\n        /* \"#utility.yul\":4371:4374   */\n      dup3\n        /* \"#utility.yul\":4367:4381   */\n      add\n        /* \"#utility.yul\":4352:4381   */\n      swap1\n      pop\n        /* \"#utility.yul\":4218:4387   */\n      swap3\n      swap2\n      pop\n      pop\n      jump\t// out\n        /* \"#utility.yul\":4393:4532   */\n    tag_146:\n        /* \"#utility.yul\":4482:4488   */\n      dup3\n        /* \"#utility.yul\":4477:4480   */\n      dup2\n        /* \"#utility.yul\":4472:4475   */\n      dup4\n        /* \"#utility.yul\":4466:4489   */\n      mcopy\n        /* \"#utility.yul\":4523:4524   */\n      0x00\n        /* \"#utility.yul\":4514:4520   */\n      dup4\n        /* \"#utility.yul\":4509:4512   */\n      dup4\n        /* \"#utility.yul\":4505:4521   */\n      add\n        /* \"#utility.yul\":4498:4525   */\n      mstore\n        /* \"#utility.yul\":4393:4532   */\n      pop\n      pop\n      pop\n      jump\t// out\n        /* \"#utility.yul\":4538:4915   */\n    tag_147:\n        /* \"#utility.yul\":4626:4629   */\n      0x00\n        /* \"#utility.yul\":4654:4693   */\n      tag_225\n        /* \"#utility.yul\":4687:4692   */\n      dup3\n        /* \"#utility.yul\":4654:4693   */\n      tag_144\n      jump\t// in\n    tag_225:\n        /* \"#utility.yul\":4709:4780   */\n      tag_226\n        /* \"#utility.yul\":4773:4779   */\n      dup2\n        /* \"#utility.yul\":4768:4771   */\n      dup6\n        /* \"#utility.yul\":4709:4780   */\n      tag_145\n      jump\t// in\n    tag_226:\n        /* \"#utility.yul\":4702:4780   */\n      swap4\n      pop\n        /* \"#utility.yul\":4789:4854   */\n      tag_227\n        /* \"#utility.yul\":4847:4853   */\n      dup2\n        /* \"#utility.yul\":4842:4845   */\n      dup6\n        /* \"#utility.yul\":4835:4839   */\n      0x20\n        /* \"#utility.yul\":4828:4833   */\n      dup7\n        /* \"#utility.yul\":4824:4840   */\n      add\n        /* \"#utility.yul\":4789:4854   */\n      tag_146\n      jump\t// in\n    tag_227:\n        /* \"#utility.yul\":4879:4908   */\n      tag_228\n        /* \"#utility.yul\":4901:4907   */\n      dup2\n        /* \"#utility.yul\":4879:4908   */\n      tag_134\n      jump\t// in\n    tag_228:\n        /* \"#utility.yul\":4874:4877   */\n      dup5\n        /* \"#utility.yul\":4870:4909   */\n      add\n        /* \"#utility.yul\":4863:4909   */\n      swap2\n      pop\n        /* \"#utility.yul\":4630:4915   */\n      pop\n        /* \"#utility.yul\":4538:4915   */\n      swap3\n      swap2\n      pop\n      pop\n      jump\t// out\n        /* \"#utility.yul\":4921:5234   */\n    tag_27:\n        /* \"#utility.yul\":5034:5038   */\n      0x00\n        /* \"#utility.yul\":5072:5074   */\n      0x20\n        /* \"#utility.yul\":5061:5070   */\n      dup3\n        /* \"#utility.yul\":5057:5075   */\n      add\n        /* \"#utility.yul\":5049:5075   */\n      swap1\n      pop\n        /* \"#utility.yul\":5121:5130   */\n      dup2\n        /* \"#utility.yul\":5115:5119   */\n      dup2\n        /* \"#utility.yul\":5111:5131   */\n      sub\n        /* \"#utility.yul\":5107:5108   */\n      0x00\n        /* \"#utility.yul\":5096:5105   */\n      dup4\n        /* \"#utility.yul\":5092:5109   */\n      add\n        /* \"#utility.yul\":5085:5132   */\n      mstore\n        /* \"#utility.yul\":5149:5227   */\n      tag_230\n        /* \"#utility.yul\":5222:5226   */\n      dup2\n        /* \"#utility.yul\":5213:5219   */\n      dup5\n        /* \"#utility.yul\":5149:5227   */\n      tag_147\n      jump\t// in\n    tag_230:\n        /* \"#utility.yul\":5141:5227   */\n      swap1\n      pop\n        /* \"#utility.yul\":4921:5234   */\n      swap3\n      swap2\n      pop\n      pop\n      jump\t// out\n        /* \"#utility.yul\":5240:5330   */\n    tag_148:\n        /* \"#utility.yul\":5274:5281   */\n      0x00\n        /* \"#utility.yul\":5317:5322   */\n      dup2\n        /* \"#utility.yul\":5310:5323   */\n      iszero\n        /* \"#utility.yul\":5303:5324   */\n      iszero\n        /* \"#utility.yul\":5292:5324   */\n      swap1\n      pop\n        /* \"#utility.yul\":5240:5330   */\n      swap2\n      swap1\n      pop\n      jump\t// out\n        /* \"#utility.yul\":5336:5445   */\n    tag_149:\n        /* \"#utility.yul\":5417:5438   */\n      tag_233\n        /* \"#utility.yul\":5432:5437   */\n      dup2\n        /* \"#utility.yul\":5417:5438   */\n      tag_148\n      jump\t// in\n    tag_233:\n        /* \"#utility.yul\":5412:5415   */\n      dup3\n        /* \"#utility.yul\":5405:5439   */\n      mstore\n        /* \"#utility.yul\":5336:5445   */\n      pop\n      pop\n      jump\t// out\n        /* \"#utility.yul\":5451:5661   */\n    tag_34:\n        /* \"#utility.yul\":5538:5542   */\n      0x00\n        /* \"#utility.yul\":5576:5578   */\n      0x20\n        /* \"#utility.yul\":5565:5574   */\n      dup3\n        /* \"#utility.yul\":5561:5579   */\n      add\n        /* \"#utility.yul\":5553:5579   */\n      swap1\n      pop\n        /* \"#utility.yul\":5589:5654   */\n      tag_235\n        /* \"#utility.yul\":5651:5652   */\n      0x00\n        /* \"#utility.yul\":5640:5649   */\n      dup4\n        /* \"#utility.yul\":5636:5653   */\n      add\n        /* \"#utility.yul\":5627:5633   */\n      dup5\n        /* \"#utility.yul\":5589:5654   */\n      tag_149\n      jump\t// in\n    tag_235:\n        /* \"#utility.yul\":5451:5661   */\n      swap3\n      swap2\n      pop\n      pop\n      jump\t// out\n        /* \"#utility.yul\":5667:6501   */\n    tag_37:\n        /* \"#utility.yul\":5755:5761   */\n      0x00\n        /* \"#utility.yul\":5763:5769   */\n      dup1\n        /* \"#utility.yul\":5812:5814   */\n      0x40\n        /* \"#utility.yul\":5800:5809   */\n      dup4\n        /* \"#utility.yul\":5791:5798   */\n      dup6\n        /* \"#utility.yul\":5787:5810   */\n      sub\n        /* \"#utility.yul\":5783:5815   */\n      slt\n        /* \"#utility.yul\":5780:5899   */\n      iszero\n      tag_237\n      jumpi\n        /* \"#utility.yul\":5818:5897   */\n      tag_238\n      tag_130\n      jump\t// in\n    tag_238:\n        /* \"#utility.yul\":5780:5899   */\n    tag_237:\n        /* \"#utility.yul\":5966:5967   */\n      0x00\n        /* \"#utility.yul\":5955:5964   */\n      dup4\n        /* \"#utility.yul\":5951:5968   */\n      add\n        /* \"#utility.yul\":5938:5969   */\n      calldataload\n        /* \"#utility.yul\":5996:6014   */\n      0xffffffffffffffff\n        /* \"#utility.yul\":5988:5994   */\n      dup2\n        /* \"#utility.yul\":5985:6015   */\n      gt\n        /* \"#utility.yul\":5982:6099   */\n      iszero\n      tag_239\n      jumpi\n        /* \"#utility.yul\":6018:6097   */\n      tag_240\n      tag_131\n      jump\t// in\n    tag_240:\n        /* \"#utility.yul\":5982:6099   */\n    tag_239:\n        /* \"#utility.yul\":6123:6186   */\n      tag_241\n        /* \"#utility.yul\":6178:6185   */\n      dup6\n        /* \"#utility.yul\":6169:6175   */\n      dup3\n        /* \"#utility.yul\":6158:6167   */\n      dup7\n        /* \"#utility.yul\":6154:6176   */\n      add\n        /* \"#utility.yul\":6123:6186   */\n      tag_141\n      jump\t// in\n    tag_241:\n        /* \"#utility.yul\":6113:6186   */\n      swap3\n      pop\n        /* \"#utility.yul\":5909:6196   */\n      pop\n        /* \"#utility.yul\":6263:6265   */\n      0x20\n        /* \"#utility.yul\":6252:6261   */\n      dup4\n        /* \"#utility.yul\":6248:6266   */\n      add\n        /* \"#utility.yul\":6235:6267   */\n      calldataload\n        /* \"#utility.yul\":6294:6312   */\n      0xffffffffffffffff\n        /* \"#utility.yul\":6286:6292   */\n      dup2\n        /* \"#utility.yul\":6283:6313   */\n      gt\n        /* \"#utility.yul\":6280:6397   */\n      iszero\n      tag_242\n      jumpi\n        /* \"#utility.yul\":6316:6395   */\n      tag_243\n      tag_131\n      jump\t// in\n    tag_243:\n        /* \"#utility.yul\":6280:6397   */\n    tag_242:\n        /* \"#utility.yul\":6421:6484   */\n      tag_244\n        /* \"#utility.yul\":6476:6483   */\n      dup6\n        /* \"#utility.yul\":6467:6473   */\n      dup3\n        /* \"#utility.yul\":6456:6465   */\n      dup7\n        /* \"#utility.yul\":6452:6474   */\n      add\n        /* \"#utility.yul\":6421:6484   */\n      tag_141\n      jump\t// in\n    tag_244:\n        /* \"#utility.yul\":6411:6484   */\n      swap2\n      pop\n        /* \"#utility.yul\":6206:6494   */\n      pop\n        /* \"#utility.yul\":5667:6501   */\n      swap3\n      pop\n      swap3\n      swap1\n      pop\n      jump\t// out\n        /* \"#utility.yul\":6507:6667   */\n    tag_150:\n        /* \"#utility.yul\":6647:6659   */\n      0x4f776e6572206f6e6c7900000000000000000000000000000000000000000000\n        /* \"#utility.yul\":6643:6644   */\n      0x00\n        /* \"#utility.yul\":6635:6641   */\n      dup3\n        /* \"#utility.yul\":6631:6645   */\n      add\n        /* \"#utility.yul\":6624:6660   */\n      mstore\n        /* \"#utility.yul\":6507:6667   */\n      pop\n      jump\t// out\n        /* \"#utility.yul\":6673:7039   */\n    tag_151:\n        /* \"#utility.yul\":6815:6818   */\n      0x00\n        /* \"#utility.yul\":6836:6903   */\n      tag_247\n        /* \"#utility.yul\":6900:6902   */\n      0x0a\n        /* \"#utility.yul\":6895:6898   */\n      dup4\n        /* \"#utility.yul\":6836:6903   */\n      tag_145\n      jump\t// in\n    tag_247:\n        /* \"#utility.yul\":6829:6903   */\n      swap2\n      pop\n        /* \"#utility.yul\":6912:7005   */\n      tag_248\n        /* \"#utility.yul\":7001:7004   */\n      dup3\n        /* \"#utility.yul\":6912:7005   */\n      tag_150\n      jump\t// in\n    tag_248:\n        /* \"#utility.yul\":7030:7032   */\n      0x20\n        /* \"#utility.yul\":7025:7028   */\n      dup3\n        /* \"#utility.yul\":7021:7033   */\n      add\n        /* \"#utility.yul\":7014:7033   */\n      swap1\n      pop\n        /* \"#utility.yul\":6673:7039   */\n      swap2\n      swap1\n      pop\n      jump\t// out\n        /* \"#utility.yul\":7045:7464   */\n    tag_57:\n        /* \"#utility.yul\":7211:7215   */\n      0x00\n        /* \"#utility.yul\":7249:7251   */\n      0x20\n        /* \"#utility.yul\":7238:7247   */\n      dup3\n        /* \"#utility.yul\":7234:7252   */\n      add\n        /* \"#utility.yul\":7226:7252   */\n      swap1\n      pop\n        /* \"#utility.yul\":7298:7307   */\n      dup2\n        /* \"#utility.yul\":7292:7296   */\n      dup2\n        /* \"#utility.yul\":7288:7308   */\n      sub\n        /* \"#utility.yul\":7284:7285   */\n      0x00\n        /* \"#utility.yul\":7273:7282   */\n      dup4\n        /* \"#utility.yul\":7269:7286   */\n      add\n        /* \"#utility.yul\":7262:7309   */\n      mstore\n        /* \"#utility.yul\":7326:7457   */\n      tag_250\n        /* \"#utility.yul\":7452:7456   */\n      dup2\n        /* \"#utility.yul\":7326:7457   */\n      tag_151\n      jump\t// in\n    tag_250:\n        /* \"#utility.yul\":7318:7457   */\n      swap1\n      pop\n        /* \"#utility.yul\":7045:7464   */\n      swap2\n      swap1\n      pop\n      jump\t// out\n        /* \"#utility.yul\":7470:7650   */\n    tag_64:\n        /* \"#utility.yul\":7518:7595   */\n      0x4e487b7100000000000000000000000000000000000000000000000000000000\n        /* \"#utility.yul\":7515:7516   */\n      0x00\n        /* \"#utility.yul\":7508:7596   */\n      mstore\n        /* \"#utility.yul\":7615:7619   */\n      0x32\n        /* \"#utility.yul\":7612:7613   */\n      0x04\n        /* \"#utility.yul\":7605:7620   */\n      mstore\n        /* \"#utility.yul\":7639:7643   */\n      0x24\n        /* \"#utility.yul\":7636:7637   */\n      0x00\n        /* \"#utility.yul\":7629:7644   */\n      revert\n        /* \"#utility.yul\":7656:7836   */\n    tag_152:\n        /* \"#utility.yul\":7704:7781   */\n      0x4e487b7100000000000000000000000000000000000000000000000000000000\n        /* \"#utility.yul\":7701:7702   */\n      0x00\n        /* \"#utility.yul\":7694:7782   */\n      mstore\n        /* \"#utility.yul\":7801:7805   */\n      0x22\n        /* \"#utility.yul\":7798:7799   */\n      0x04\n        /* \"#utility.yul\":7791:7806   */\n      mstore\n        /* \"#utility.yul\":7825:7829   */\n      0x24\n        /* \"#utility.yul\":7822:7823   */\n      0x00\n        /* \"#utility.yul\":7815:7830   */\n      revert\n        /* \"#utility.yul\":7842:8162   */\n    tag_76:\n        /* \"#utility.yul\":7886:7892   */\n      0x00\n        /* \"#utility.yul\":7923:7924   */\n      0x02\n        /* \"#utility.yul\":7917:7921   */\n      dup3\n        /* \"#utility.yul\":7913:7925   */\n      div\n        /* \"#utility.yul\":7903:7925   */\n      swap1\n      pop\n        /* \"#utility.yul\":7970:7971   */\n      0x01\n        /* \"#utility.yul\":7964:7968   */\n      dup3\n        /* \"#utility.yul\":7960:7972   */\n      and\n        /* \"#utility.yul\":7991:8009   */\n      dup1\n        /* \"#utility.yul\":7981:8062   */\n      tag_254\n      jumpi\n        /* \"#utility.yul\":8047:8051   */\n      0x7f\n        /* \"#utility.yul\":8039:8045   */\n      dup3\n        /* \"#utility.yul\":8035:8052   */\n      and\n        /* \"#utility.yul\":8025:8052   */\n      swap2\n      pop\n        /* \"#utility.yul\":7981:8062   */\n    tag_254:\n        /* \"#utility.yul\":8109:8111   */\n      0x20\n        /* \"#utility.yul\":8101:8107   */\n      dup3\n        /* \"#utility.yul\":8098:8112   */\n      lt\n        /* \"#utility.yul\":8078:8096   */\n      dup2\n        /* \"#utility.yul\":8075:8113   */\n      sub\n        /* \"#utility.yul\":8072:8156   */\n      tag_255\n      jumpi\n        /* \"#utility.yul\":8128:8146   */\n      tag_256\n      tag_152\n      jump\t// in\n    tag_256:\n        /* \"#utility.yul\":8072:8156   */\n    tag_255:\n        /* \"#utility.yul\":7893:8162   */\n      pop\n        /* \"#utility.yul\":7842:8162   */\n      swap2\n      swap1\n      pop\n      jump\t// out\n        /* \"#utility.yul\":8168:8309   */\n    tag_153:\n        /* \"#utility.yul\":8217:8221   */\n      0x00\n        /* \"#utility.yul\":8240:8243   */\n      dup2\n        /* \"#utility.yul\":8232:8243   */\n      swap1\n      pop\n        /* \"#utility.yul\":8263:8266   */\n      dup2\n        /* \"#utility.yul\":8260:8261   */\n      0x00\n        /* \"#utility.yul\":8253:8267   */\n      mstore\n        /* \"#utility.yul\":8297:8301   */\n      0x20\n        /* \"#utility.yul\":8294:8295   */\n      0x00\n        /* \"#utility.yul\":8284:8302   */\n      keccak256\n        /* \"#utility.yul\":8276:8302   */\n      swap1\n      pop\n        /* \"#utility.yul\":8168:8309   */\n      swap2\n      swap1\n      pop\n      jump\t// out\n        /* \"#utility.yul\":8315:8408   */\n    tag_154:\n        /* \"#utility.yul\":8352:8358   */\n      0x00\n        /* \"#utility.yul\":8399:8401   */\n      0x20\n        /* \"#utility.yul\":8394:8396   */\n      0x1f\n        /* \"#utility.yul\":8387:8392   */\n      dup4\n        /* \"#utility.yul\":8383:8397   */\n      add\n        /* \"#utility.yul\":8379:8402   */\n      div\n        /* \"#utility.yul\":8369:8402   */\n      swap1\n      pop\n        /* \"#utility.yul\":8315:8408   */\n      swap2\n      swap1\n      pop\n      jump\t// out\n        /* \"#utility.yul\":8414:8521   */\n    tag_155:\n        /* \"#utility.yul\":8458:8466   */\n      0x00\n        /* \"#utility.yul\":8508:8513   */\n      dup3\n        /* \"#utility.yul\":8502:8506   */\n      dup3\n        /* \"#utility.yul\":8498:8514   */\n      shl\n        /* \"#utility.yul\":8477:8514   */\n      swap1\n      pop\n        /* \"#utility.yul\":8414:8521   */\n      swap3\n      swap2\n      pop\n      pop\n      jump\t// out\n        /* \"#utility.yul\":8527:8920   */\n    tag_156:\n        /* \"#utility.yul\":8596:8602   */\n      0x00\n        /* \"#utility.yul\":8646:8647   */\n      0x08\n        /* \"#utility.yul\":8634:8644   */\n      dup4\n        /* \"#utility.yul\":8630:8648   */\n      mul\n        /* \"#utility.yul\":8669:8766   */\n      tag_261\n        /* \"#utility.yul\":8699:8765   */\n      0xffffffffffffffffffffffffffffffffffffffffffffffffffffffffffffffff\n        /* \"#utility.yul\":8688:8697   */\n      dup3\n        /* \"#utility.yul\":8669:8766   */\n      tag_155\n      jump\t// in\n    tag_261:\n        /* \"#utility.yul\":8787:8826   */\n      tag_262\n        /* \"#utility.yul\":8817:8825   */\n      dup7\n        /* \"#utility.yul\":8806:8815   */\n      dup4\n        /* \"#utility.yul\":8787:8826   */\n      tag_155\n      jump\t// in\n    tag_262:\n        /* \"#utility.yul\":8775:8826   */\n      swap6\n      pop\n        /* \"#utility.yul\":8859:8863   */\n      dup1\n        /* \"#utility.yul\":8855:8864   */\n      not\n        /* \"#utility.yul\":8848:8853   */\n      dup5\n        /* \"#utility.yul\":8844:8865   */\n      and\n        /* \"#utility.yul\":8835:8865   */\n      swap4\n      pop\n        /* \"#utility.yul\":8908:8912   */\n      dup1\n        /* \"#utility.yul\":8898:8906   */\n      dup7\n        /* \"#utility.yul\":8894:8913   */\n      and\n        /* \"#utility.yul\":8887:8892   */\n      dup5\n        /* \"#utility.yul\":8884:8914   */\n      or\n        /* \"#utility.yul\":8874:8914   */\n      swap3\n      pop\n        /* \"#utility.yul\":8603:8920   */\n      pop\n      pop\n        /* \"#utility.yul\":8527:8920   */\n      swap4\n      swap3\n      pop\n      pop\n      pop\n      jump\t// out\n        /* \"#utility.yul\":8926:8986   */\n    tag_157:\n        /* \"#utility.yul\":8954:8957   */\n      0x00\n        /* \"#utility.yul\":8975:8980   */\n      dup2\n        /* \"#utility.yul\":8968:8980   */\n      swap1\n      pop\n        /* \"#utility.yul\":8926:8986   */\n      swap2\n      swap1\n      pop\n      jump\t// out\n        /* \"#utility.yul\":8992:9134   */\n    tag_158:\n        /* \"#utility.yul\":9042:9051   */\n      0x00\n        /* \"#utility.yul\":9075:9128   */\n      tag_265\n        /* \"#utility.yul\":9093:9127   */\n      tag_266\n        /* \"#utility.yul\":9102:9126   */\n      tag_267\n        /* \"#utility.yul\":9120:9125   */\n      dup5\n        /* \"#utility.yul\":9102:9126   */\n      tag_127\n      jump\t// in\n    tag_267:\n        /* \"#utility.yul\":9093:9127   */\n      tag_157\n      jump\t// in\n    tag_266:\n        /* \"#utility.yul\":9075:9128   */\n      tag_127\n      jump\t// in\n    tag_265:\n        /* \"#utility.yul\":9062:9128   */\n      swap1\n      pop\n        /* \"#utility.yul\":8992:9134   */\n      swap2\n      swap1\n      pop\n      jump\t// out\n        /* \"#utility.yul\":9140:9215   */\n    tag_159:\n        /* \"#utility.yul\":9183:9186   */\n      0x00\n        /* \"#utility.yul\":9204:9209   */\n      dup2\n        /* \"#utility.yul\":9197:9209   */\n      swap1\n      pop\n        /* \"#utility.yul\":9140:9215   */\n      swap2\n      swap1\n      pop\n      jump\t// out\n        /* \"#utility.yul\":9221:9490   */\n    tag_160:\n        /* \"#utility.yul\":9331:9370   */\n      tag_270\n        /* \"#utility.yul\":9362:9369   */\n      dup4\n        /* \"#utility.yul\":9331:9370   */\n      tag_158\n      jump\t// in\n    tag_270:\n        /* \"#utility.yul\":9392:9483   */\n      tag_271\n        /* \"#utility.yul\":9441:9482   */\n      tag_272\n        /* \"#utility.yul\":9465:9481   */\n      dup3\n        /* \"#utility.yul\":9441:9482   */\n      tag_159\n      jump\t// in\n    tag_272:\n        /* \"#utility.yul\":9433:9439   */\n      dup5\n        /* \"#utility.yul\":9426:9430   */\n      dup5\n        /* \"#utility.yul\":9420:9431   */\n      sload\n        /* \"#utility.yul\":9392:9483   */\n      tag_156\n      jump\t// in\n    tag_271:\n        /* \"#utility.yul\":9386:9390   */\n      dup3\n        /* \"#utility.yul\":9379:9484   */\n      sstore\n        /* \"#utility.yul\":9297:9490   */\n      pop\n        /* \"#utility.yul\":9221:9490   */\n      pop\n      pop\n      pop\n      jump\t// out\n        /* \"#utility.yul\":9496:9569   */\n    tag_161:\n        /* \"#utility.yul\":9541:9544   */\n      0x00\n        /* \"#utility.yul\":9496:9569   */\n      swap1\n      jump\t// out\n        /* \"#utility.yul\":9575:9764   */\n    tag_162:\n        /* \"#utility.yul\":9652:9684   */\n      tag_275\n      tag_161\n      jump\t// in\n    tag_275:\n        /* \"#utility.yul\":9693:9758   */\n      tag_276\n        /* \"#utility.yul\":9751:9757   */\n      dup2\n        /* \"#utility.yul\":9743:9749   */\n      dup5\n        /* \"#utility.yul\":9737:9741   */\n      dup5\n        /* \"#utility.yul\":9693:9758   */\n      tag_160\n      jump\t// in\n    tag_276:\n        /* \"#utility.yul\":9628:9764   */\n      pop\n        /* \"#utility.yul\":9575:9764   */\n      pop\n      pop\n      jump\t// out\n        /* \"#utility.yul\":9770:9956   */\n    tag_163:\n        /* \"#utility.yul\":9830:9950   */\n    tag_278:\n        /* \"#utility.yul\":9847:9850   */\n      dup2\n        /* \"#utility.yul\":9840:9845   */\n      dup2\n        /* \"#utility.yul\":9837:9851   */\n      lt\n        /* \"#utility.yul\":9830:9950   */\n      iszero\n      tag_280\n      jumpi\n        /* \"#utility.yul\":9901:9940   */\n      tag_281\n        /* \"#utility.yul\":9938:9939   */\n      0x00\n        /* \"#utility.yul\":9931:9936   */\n      dup3\n        /* \"#utility.yul\":9901:9940   */\n      tag_162\n      jump\t// in\n    tag_281:\n        /* \"#utility.yul\":9874:9875   */\n      0x01\n        /* \"#utility.yul\":9867:9872   */\n      dup2\n        /* \"#utility.yul\":9863:9876   */\n      add\n        /* \"#utility.yul\":9854:9876   */\n      swap1\n      pop\n        /* \"#utility.yul\":9830:9950   */\n      jump(tag_278)\n    tag_280:\n        /* \"#utility.yul\":9770:9956   */\n      pop\n      pop\n      jump\t// out\n        /* \"#utility.yul\":9962:10505   */\n    tag_164:\n        /* \"#utility.yul\":10063:10065   */\n      0x1f\n        /* \"#utility.yul\":10058:10061   */\n      dup3\n        /* \"#utility.yul\":10055:10066   */\n      gt\n        /* \"#utility.yul\":10052:10498   */\n      iszero\n      tag_283\n      jumpi\n        /* \"#utility.yul\":10097:10135   */\n      tag_284\n        /* \"#utility.yul\":10129:10134   */\n      dup2\n        /* \"#utility.yul\":10097:10135   */\n      tag_153\n      jump\t// in\n    tag_284:\n        /* \"#utility.yul\":10181:10210   */\n      tag_285\n        /* \"#utility.yul\":10199:10209   */\n      dup5\n        /* \"#utility.yul\":10181:10210   */\n      tag_154\n      jump\t// in\n    tag_285:\n        /* \"#utility.yul\":10171:10179   */\n      dup2\n        /* \"#utility.yul\":10167:10211   */\n      add\n        /* \"#utility.yul\":10364:10366   */\n      0x20\n        /* \"#utility.yul\":10352:10362   */\n      dup6\n        /* \"#utility.yul\":10349:10367   */\n      lt\n        /* \"#utility.yul\":10346:10395   */\n      iszero\n      tag_286\n      jumpi\n        /* \"#utility.yul\":10385:10393   */\n      dup2\n        /* \"#utility.yul\":10370:10393   */\n      swap1\n      pop\n        /* \"#utility.yul\":10346:10395   */\n    tag_286:\n        /* \"#utility.yul\":10408:10488   */\n      tag_287\n        /* \"#utility.yul\":10464:10486   */\n      tag_288\n        /* \"#utility.yul\":10482:10485   */\n      dup6\n        /* \"#utility.yul\":10464:10486   */\n      tag_154\n      jump\t// in\n    tag_288:\n        /* \"#utility.yul\":10454:10462   */\n      dup4\n        /* \"#utility.yul\":10450:10487   */\n      add\n        /* \"#utility.yul\":10437:10448   */\n      dup3\n        /* \"#utility.yul\":10408:10488   */\n      tag_163\n      jump\t// in\n    tag_287:\n        /* \"#utility.yul\":10067:10498   */\n      pop\n      pop\n        /* \"#utility.yul\":10052:10498   */\n    tag_283:\n        /* \"#utility.yul\":9962:10505   */\n      pop\n      pop\n      pop\n      jump\t// out\n        /* \"#utility.yul\":10511:10628   */\n    tag_165:\n        /* \"#utility.yul\":10565:10573   */\n      0x00\n        /* \"#utility.yul\":10615:10620   */\n      dup3\n        /* \"#utility.yul\":10609:10613   */\n      dup3\n        /* \"#utility.yul\":10605:10621   */\n      shr\n        /* \"#utility.yul\":10584:10621   */\n      swap1\n      pop\n        /* \"#utility.yul\":10511:10628   */\n      swap3\n      swap2\n      pop\n      pop\n      jump\t// out\n        /* \"#utility.yul\":10634:10803   */\n    tag_166:\n        /* \"#utility.yul\":10678:10684   */\n      0x00\n        /* \"#utility.yul\":10711:10762   */\n      tag_291\n        /* \"#utility.yul\":10759:10760   */\n      0x00\n        /* \"#utility.yul\":10755:10761   */\n      not\n        /* \"#utility.yul\":10747:10752   */\n      dup5\n        /* \"#utility.yul\":10744:10745   */\n      0x08\n        /* \"#utility.yul\":10740:10753   */\n      mul\n        /* \"#utility.yul\":10711:10762   */\n      tag_165\n      jump\t// in\n    tag_291:\n        /* \"#utility.yul\":10707:10763   */\n      not\n        /* \"#utility.yul\":10792:10796   */\n      dup1\n        /* \"#utility.yul\":10786:10790   */\n      dup4\n        /* \"#utility.yul\":10782:10797   */\n      and\n        /* \"#utility.yul\":10772:10797   */\n      swap2\n      pop\n        /* \"#utility.yul\":10685:10803   */\n      pop\n        /* \"#utility.yul\":10634:10803   */\n      swap3\n      swap2\n      pop\n      pop\n      jump\t// out\n        /* \"#utility.yul\":10808:11103   */\n    tag_167:\n        /* \"#utility.yul\":10884:10888   */\n      0x00\n        /* \"#utility.yul\":11030:11059   */\n      tag_293\n        /* \"#utility.yul\":11055:11058   */\n      dup4\n        /* \"#utility.yul\":11049:11053   */\n      dup4\n        /* \"#utility.yul\":11030:11059   */\n      tag_166\n      jump\t// in\n    tag_293:\n        /* \"#utility.yul\":11022:11059   */\n      swap2\n      pop\n        /* \"#utility.yul\":11092:11095   */\n      dup3\n        /* \"#utility.yul\":11089:11090   */\n      0x02\n        /* \"#utility.yul\":11085:11096   */\n      mul\n        /* \"#utility.yul\":11079:11083   */\n      dup3\n        /* \"#utility.yul\":11076:11097   */\n      or\n        /* \"#utility.yul\":11068:11097   */\n      swap1\n      pop\n        /* \"#utility.yul\":10808:11103   */\n      swap3\n      swap2\n      pop\n      pop\n      jump\t// out\n        /* \"#utility.yul\":11108:12503   */\n    tag_67:\n        /* \"#utility.yul\":11225:11262   */\n      tag_295\n        /* \"#utility.yul\":11258:11261   */\n      dup3\n        /* \"#utility.yul\":11225:11262   */\n      tag_144\n      jump\t// in\n    tag_295:\n        /* \"#utility.yul\":11327:11345   */\n      0xffffffffffffffff\n        /* \"#utility.yul\":11319:11325   */\n      dup2\n        /* \"#utility.yul\":11316:11346   */\n      gt\n        /* \"#utility.yul\":11313:11369   */\n      iszero\n      tag_296\n      jumpi\n        /* \"#utility.yul\":11349:11367   */\n      tag_297\n      tag_135\n      jump\t// in\n    tag_297:\n        /* \"#utility.yul\":11313:11369   */\n    tag_296:\n        /* \"#utility.yul\":11393:11431   */\n      tag_298\n        /* \"#utility.yul\":11425:11429   */\n      dup3\n        /* \"#utility.yul\":11419:11430   */\n      sload\n        /* \"#utility.yul\":11393:11431   */\n      tag_76\n      jump\t// in\n    tag_298:\n        /* \"#utility.yul\":11478:11545   */\n      tag_299\n        /* \"#utility.yul\":11538:11544   */\n      dup3\n        /* \"#utility.yul\":11530:11536   */\n      dup3\n        /* \"#utility.yul\":11524:11528   */\n      dup6\n        /* \"#utility.yul\":11478:11545   */\n      tag_164\n      jump\t// in\n    tag_299:\n        /* \"#utility.yul\":11572:11573   */\n      0x00\n        /* \"#utility.yul\":11596:11600   */\n      0x20\n        /* \"#utility.yul\":11583:11600   */\n      swap1\n      pop\n        /* \"#utility.yul\":11628:11630   */\n      0x1f\n        /* \"#utility.yul\":11620:11626   */\n      dup4\n        /* \"#utility.yul\":11617:11631   */\n      gt\n        /* \"#utility.yul\":11645:11646   */\n      0x01\n        /* \"#utility.yul\":11640:12258   */\n      dup2\n      eq\n      tag_301\n      jumpi\n        /* \"#utility.yul\":12302:12303   */\n      0x00\n        /* \"#utility.yul\":12319:12325   */\n      dup5\n        /* \"#utility.yul\":12316:12393   */\n      iszero\n      tag_302\n      jumpi\n        /* \"#utility.yul\":12368:12377   */\n      dup3\n        /* \"#utility.yul\":12363:12366   */\n      dup8\n        /* \"#utility.yul\":12359:12378   */\n      add\n        /* \"#utility.yul\":12353:12379   */\n      mload\n        /* \"#utility.yul\":12344:12379   */\n      swap1\n      pop\n        /* \"#utility.yul\":12316:12393   */\n    tag_302:\n        /* \"#utility.yul\":12419:12486   */\n      tag_303\n        /* \"#utility.yul\":12479:12485   */\n      dup6\n        /* \"#utility.yul\":12472:12477   */\n      dup3\n        /* \"#utility.yul\":12419:12486   */\n      tag_167\n      jump\t// in\n    tag_303:\n        /* \"#utility.yul\":12413:12417   */\n      dup7\n        /* \"#utility.yul\":12406:12487   */\n      sstore\n        /* \"#utility.yul\":12275:12497   */\n      pop\n        /* \"#utility.yul\":11610:12497   */\n      jump(tag_300)\n        /* \"#utility.yul\":11640:12258   */\n    tag_301:\n        /* \"#utility.yul\":11692:11696   */\n      0x1f\n        /* \"#utility.yul\":11688:11697   */\n      not\n        /* \"#utility.yul\":11680:11686   */\n      dup5\n        /* \"#utility.yul\":11676:11698   */\n      and\n        /* \"#utility.yul\":11726:11763   */\n      tag_304\n        /* \"#utility.yul\":11758:11762   */\n      dup7\n        /* \"#utility.yul\":11726:11763   */\n      tag_153\n      jump\t// in\n    tag_304:\n        /* \"#utility.yul\":11785:11786   */\n      0x00\n        /* \"#utility.yul\":11799:12007   */\n    tag_305:\n        /* \"#utility.yul\":11813:11820   */\n      dup3\n        /* \"#utility.yul\":11810:11811   */\n      dup2\n        /* \"#utility.yul\":11807:11821   */\n      lt\n        /* \"#utility.yul\":11799:12007   */\n      iszero\n      tag_307\n      jumpi\n        /* \"#utility.yul\":11892:11901   */\n      dup5\n        /* \"#utility.yul\":11887:11890   */\n      dup10\n        /* \"#utility.yul\":11883:11902   */\n      add\n        /* \"#utility.yul\":11877:11903   */\n      mload\n        /* \"#utility.yul\":11869:11875   */\n      dup3\n        /* \"#utility.yul\":11862:11904   */\n      sstore\n        /* \"#utility.yul\":11943:11944   */\n      0x01\n        /* \"#utility.yul\":11935:11941   */\n      dup3\n        /* \"#utility.yul\":11931:11945   */\n      add\n        /* \"#utility.yul\":11921:11945   */\n      swap2\n      pop\n        /* \"#utility.yul\":11990:11992   */\n      0x20\n        /* \"#utility.yul\":11979:11988   */\n      dup6\n        /* \"#utility.yul\":11975:11993   */\n      add\n        /* \"#utility.yul\":11962:11993   */\n      swap5\n      pop\n        /* \"#utility.yul\":11836:11840   */\n      0x20\n        /* \"#utility.yul\":11833:11834   */\n      dup2\n        /* \"#utility.yul\":11829:11841   */\n      add\n        /* \"#utility.yul\":11824:11841   */\n      swap1\n      pop\n        /* \"#utility.yul\":11799:12007   */\n      jump(tag_305)\n    tag_307:\n        /* \"#utility.yul\":12035:12041   */\n      dup7\n        /* \"#utility.yul\":12026:12033   */\n      dup4\n        /* \"#utility.yul\":12023:12042   */\n      lt\n        /* \"#utility.yul\":12020:12199   */\n      iszero\n      tag_308\n      jumpi\n        /* \"#utility.yul\":12093:12102   */\n      dup5\n        /* \"#utility.yul\":12088:12091   */\n      dup10\n        /* \"#utility.yul\":12084:12103   */\n      add\n        /* \"#utility.yul\":12078:12104   */\n      mload\n        /* \"#utility.yul\":12136:12184   */\n      tag_309\n        /* \"#utility.yul\":12178:12182   */\n      0x1f\n        /* \"#utility.yul\":12170:12176   */\n      dup10\n        /* \"#utility.yul\":12166:12183   */\n      and\n        /* \"#utility.yul\":12155:12164   */\n      dup3\n        /* \"#utility.yul\":12136:12184   */\n      tag_166\n      jump\t// in\n    tag_309:\n        /* \"#utility.yul\":12128:12134   */\n      dup4\n        /* \"#utility.yul\":12121:12185   */\n      sstore\n        /* \"#utility.yul\":12043:12199   */\n      pop\n        /* \"#utility.yul\":12020:12199   */\n    tag_308:\n        /* \"#utility.yul\":12245:12246   */\n      0x01\n        /* \"#utility.yul\":12241:12242   */\n      0x02\n        /* \"#utility.yul\":12233:12239   */\n      dup9\n        /* \"#utility.yul\":12229:12243   */\n      mul\n        /* \"#utility.yul\":12225:12247   */\n      add\n        /* \"#utility.yul\":12219:12223   */\n      dup9\n        /* \"#utility.yul\":12212:12248   */\n      sstore\n        /* \"#utility.yul\":11647:12258   */\n      pop\n      pop\n      pop\n        /* \"#utility.yul\":11610:12497   */\n    tag_300:\n      pop\n        /* \"#utility.yul\":11200:12503   */\n      pop\n      pop\n      pop\n        /* \"#utility.yul\":11108:12503   */\n      pop\n      pop\n      jump\t// out\n        /* \"#utility.yul\":12509:12657   */\n    tag_168:\n        /* \"#utility.yul\":12611:12622   */\n      0x00\n        /* \"#utility.yul\":12648:12651   */\n      dup2\n        /* \"#utility.yul\":12633:12651   */\n      swap1\n      pop\n        /* \"#utility.yul\":12509:12657   */\n      swap3\n      swap2\n      pop\n      pop\n      jump\t// out\n        /* \"#utility.yul\":12663:13053   */\n    tag_169:\n        /* \"#utility.yul\":12769:12772   */\n      0x00\n        /* \"#utility.yul\":12797:12836   */\n      tag_312\n        /* \"#utility.yul\":12830:12835   */\n      dup3\n        /* \"#utility.yul\":12797:12836   */\n      tag_144\n      jump\t// in\n    tag_312:\n        /* \"#utility.yul\":12852:12941   */\n      tag_313\n        /* \"#utility.yul\":12934:12940   */\n      dup2\n        /* \"#utility.yul\":12929:12932   */\n      dup6\n        /* \"#utility.yul\":12852:12941   */\n      tag_168\n      jump\t// in\n    tag_313:\n        /* \"#utility.yul\":12845:12941   */\n      swap4\n      pop\n        /* \"#utility.yul\":12950:13015   */\n      tag_314\n        /* \"#utility.yul\":13008:13014   */\n      dup2\n        /* \"#utility.yul\":13003:13006   */\n      dup6\n        /* \"#utility.yul\":12996:13000   */\n      0x20\n        /* \"#utility.yul\":12989:12994   */\n      dup7\n        /* \"#utility.yul\":12985:13001   */\n      add\n        /* \"#utility.yul\":12950:13015   */\n      tag_146\n      jump\t// in\n    tag_314:\n        /* \"#utility.yul\":13040:13046   */\n      dup1\n        /* \"#utility.yul\":13035:13038   */\n      dup5\n        /* \"#utility.yul\":13031:13047   */\n      add\n        /* \"#utility.yul\":13024:13047   */\n      swap2\n      pop\n        /* \"#utility.yul\":12773:13053   */\n      pop\n        /* \"#utility.yul\":12663:13053   */\n      swap3\n      swap2\n      pop\n      pop\n      jump\t// out\n        /* \"#utility.yul\":13059:13334   */\n    tag_69:\n        /* \"#utility.yul\":13191:13194   */\n      0x00\n        /* \"#utility.yul\":13213:13308   */\n      tag_316\n        /* \"#utility.yul\":13304:13307   */\n      dup3\n        /* \"#utility.yul\":13295:13301   */\n      dup5\n        /* \"#utility.yul\":13213:13308   */\n      tag_169\n      jump\t// in\n    tag_316:\n        /* \"#utility.yul\":13206:13308   */\n      swap2\n      pop\n        /* \"#utility.yul\":13325:13328   */\n      dup2\n        /* \"#utility.yul\":13318:13328   */\n      swap1\n      pop\n        /* \"#utility.yul\":13059:13334   */\n      swap3\n      swap2\n      pop\n      pop\n      jump\t// out\n        /* \"#utility.yul\":13364:14238   */\n    tag_170:\n        /* \"#utility.yul\":13467:13470   */\n      0x00\n        /* \"#utility.yul\":13504:13509   */\n      dup2\n        /* \"#utility.yul\":13498:13510   */\n      sload\n        /* \"#utility.yul\":13533:13569   */\n      tag_318\n        /* \"#utility.yul\":13559:13568   */\n      dup2\n        /* \"#utility.yul\":13533:13569   */\n      tag_76\n      jump\t// in\n    tag_318:\n        /* \"#utility.yul\":13585:13674   */\n      tag_319\n        /* \"#utility.yul\":13667:13673   */\n      dup2\n        /* \"#utility.yul\":13662:13665   */\n      dup7\n        /* \"#utility.yul\":13585:13674   */\n      tag_168\n      jump\t// in\n    tag_319:\n        /* \"#utility.yul\":13578:13674   */\n      swap5\n      pop\n        /* \"#utility.yul\":13705:13706   */\n      0x01\n        /* \"#utility.yul\":13694:13703   */\n      dup3\n        /* \"#utility.yul\":13690:13707   */\n      and\n        /* \"#utility.yul\":13721:13722   */\n      0x00\n        /* \"#utility.yul\":13716:13882   */\n      dup2\n      eq\n      tag_321\n      jumpi\n        /* \"#utility.yul\":13896:13897   */\n      0x01\n        /* \"#utility.yul\":13891:14232   */\n      dup2\n      eq\n      tag_322\n      jumpi\n        /* \"#utility.yul\":13683:14232   */\n      jump(tag_320)\n        /* \"#utility.yul\":13716:13882   */\n    tag_321:\n        /* \"#utility.yul\":13800:13804   */\n      0xff\n        /* \"#utility.yul\":13796:13805   */\n      not\n        /* \"#utility.yul\":13785:13794   */\n      dup4\n        /* \"#utility.yul\":13781:13806   */\n      and\n        /* \"#utility.yul\":13776:13779   */\n      dup7\n        /* \"#utility.yul\":13769:13807   */\n      mstore\n        /* \"#utility.yul\":13862:13868   */\n      dup2\n        /* \"#utility.yul\":13855:13869   */\n      iszero\n        /* \"#utility.yul\":13848:13870   */\n      iszero\n        /* \"#utility.yul\":13840:13846   */\n      dup3\n        /* \"#utility.yul\":13836:13871   */\n      mul\n        /* \"#utility.yul\":13831:13834   */\n      dup7\n        /* \"#utility.yul\":13827:13872   */\n      add\n        /* \"#utility.yul\":13820:13872   */\n      swap4\n      pop\n        /* \"#utility.yul\":13716:13882   */\n      jump(tag_320)\n        /* \"#utility.yul\":13891:14232   */\n    tag_322:\n        /* \"#utility.yul\":13958:13996   */\n      tag_323\n        /* \"#utility.yul\":13990:13995   */\n      dup6\n        /* \"#utility.yul\":13958:13996   */\n      tag_153\n      jump\t// in\n    tag_323:\n        /* \"#utility.yul\":14018:14019   */\n      0x00\n        /* \"#utility.yul\":14032:14186   */\n    tag_324:\n        /* \"#utility.yul\":14046:14052   */\n      dup4\n        /* \"#utility.yul\":14043:14044   */\n      dup2\n        /* \"#utility.yul\":14040:14053   */\n      lt\n        /* \"#utility.yul\":14032:14186   */\n      iszero\n      tag_326\n      jumpi\n        /* \"#utility.yul\":14120:14127   */\n      dup2\n        /* \"#utility.yul\":14114:14128   */\n      sload\n        /* \"#utility.yul\":14110:14111   */\n      dup2\n        /* \"#utility.yul\":14105:14108   */\n      dup10\n        /* \"#utility.yul\":14101:14112   */\n      add\n        /* \"#utility.yul\":14094:14129   */\n      mstore\n        /* \"#utility.yul\":14170:14171   */\n      0x01\n        /* \"#utility.yul\":14161:14168   */\n      dup3\n        /* \"#utility.yul\":14157:14172   */\n      add\n        /* \"#utility.yul\":14146:14172   */\n      swap2\n      pop\n        /* \"#utility.yul\":14068:14072   */\n      0x20\n        /* \"#utility.yul\":14065:14066   */\n      dup2\n        /* \"#utility.yul\":14061:14073   */\n      add\n        /* \"#utility.yul\":14056:14073   */\n      swap1\n      pop\n        /* \"#utility.yul\":14032:14186   */\n      jump(tag_324)\n    tag_326:\n        /* \"#utility.yul\":14215:14221   */\n      dup4\n        /* \"#utility.yul\":14210:14213   */\n      dup9\n        /* \"#utility.yul\":14206:14222   */\n      add\n        /* \"#utility.yul\":14199:14222   */\n      swap6\n      pop\n        /* \"#utility.yul\":13898:14232   */\n      pop\n      pop\n        /* \"#utility.yul\":13683:14232   */\n    tag_320:\n      pop\n        /* \"#utility.yul\":13471:14238   */\n      pop\n      pop\n        /* \"#utility.yul\":13364:14238   */\n      swap3\n      swap2\n      pop\n      pop\n      jump\t// out\n        /* \"#utility.yul\":14244:14513   */\n    tag_125:\n        /* \"#utility.yul\":14373:14376   */\n      0x00\n        /* \"#utility.yul\":14395:14487   */\n      tag_328\n        /* \"#utility.yul\":14483:14486   */\n      dup3\n        /* \"#utility.yul\":14474:14480   */\n      dup5\n        /* \"#utility.yul\":14395:14487   */\n      tag_170\n      jump\t// in\n    tag_328:\n        /* \"#utility.yul\":14388:14487   */\n      swap2\n      pop\n        /* \"#utility.yul\":14504:14507   */\n      dup2\n        /* \"#utility.yul\":14497:14507   */\n      swap1\n      pop\n        /* \"#utility.yul\":14244:14513   */\n      swap3\n      swap2\n      pop\n      pop\n      jump\t// out\n\n    auxdata: 0xa2646970667358221220c8df5080dff875f84d335d4baea9ae4b4632acafebeb037b76de151e388f604364736f6c634300081a0033\n}\n",
				"bytecode": {
					"linkReferences": {},
					"object": "6080604052348015600e575f80fd5b50335f806101000a81548173ffffffffffffffffffffffffffffffffffffffff021916908373ffffffffffffffffffffffffffffffffffffffff160217905550610fbc8061005b5f395ff3fe608060405234801561000f575f80fd5b506004361061009c575f3560e01c80638bb0faee116100645780638bb0faee146101465780638c79a24d146101625780639d170c5d14610192578063ceebe28d146101c2578063fee6d28c146101e05761009c565b8063098ab6a1146100a05780635ae5df8f146100be57806376f10ad0146100da57806380d9eaa61461010a5780638ac6a86914610128575b5f80fd5b6100a86101fc565b6040516100b59190610817565b60405180910390f35b6100d860048036038101906100d3919061097d565b610208565b005b6100f460048036038101906100ef91906109ee565b61033f565b6040516101019190610a79565b60405180910390f35b6101126103eb565b60405161011f9190610817565b60405180910390f35b6101306103f7565b60405161013d9190610ab3565b60405180910390f35b610160600480360381019061015b9190610acc565b6103fb565b005b61017c600480360381019061017791906109ee565b61051a565b6040516101899190610a79565b60405180910390f35b6101ac60048036038101906101a7919061097d565b6105c6565b6040516101b99190610a79565b60405180910390f35b6101ca610674565b6040516101d79190610817565b60405180910390f35b6101fa60048036038101906101f5919061097d565b61067c565b005b5f600380549050905090565b5f8054906101000a900473ffffffffffffffffffffffffffffffffffffffff1673ffffffffffffffffffffffffffffffffffffffff163373ffffffffffffffffffffffffffffffffffffffff1614610295576040517f08c379a000000000000000000000000000000000000000000000000000000000815260040161028c90610b8c565b60405180910390fd5b5f61029f8261073e565b90507fffffffffffffffffffffffffffffffffffffffffffffffffffffffffffffffff81146103015760405180602001604052805f815250600182815481106102eb576102ea610baa565b5b905f5260205f200190816102ff9190610dd1565b505b60405180602001604052805f8152506002836040516103209190610eda565b9081526020016040518091039020908161033a9190610dd1565b505050565b60606003828154811061035557610354610baa565b5b905f5260205f2001805461036890610c04565b80601f016020809104026020016040519081016040528092919081815260200182805461039490610c04565b80156103df5780601f106103b6576101008083540402835291602001916103df565b820191905f5260205f20905b8154815290600101906020018083116103c257829003601f168201915b50505050509050919050565b5f600180549050905090565b5f90565b5f8054906101000a900473ffffffffffffffffffffffffffffffffffffffff1673ffffffffffffffffffffffffffffffffffffffff163373ffffffffffffffffffffffffffffffffffffffff1614610488576040517f08c379a000000000000000000000000000000000000000000000000000000000815260040161047f90610b8c565b60405180910390fd5b7fffffffffffffffffffffffffffffffffffffffffffffffffffffffffffffffff6104b28361073e565b036104ea57600182908060018154018082558091505060019003905f5260205f20015f9091909190915090816104e89190610dd1565b505b806002836040516104fb9190610eda565b908152602001604051809103902090816105159190610dd1565b505050565b6060600182815481106105305761052f610baa565b5b905f5260205f2001805461054390610c04565b80601f016020809104026020016040519081016040528092919081815260200182805461056f90610c04565b80156105ba5780601f10610591576101008083540402835291602001916105ba565b820191905f5260205f20905b81548152906001019060200180831161059d57829003601f168201915b50505050509050919050565b60606002826040516105d89190610eda565b908152602001604051809103902080546105f190610c04565b80601f016020809104026020016040519081016040528092919081815260200182805461061d90610c04565b80156106685780601f1061063f57610100808354040283529160200191610668565b820191905f5260205f20905b81548152906001019060200180831161064b57829003601f168201915b50505050509050919050565b5f6001905090565b5f8054906101000a900473ffffffffffffffffffffffffffffffffffffffff1673ffffffffffffffffffffffffffffffffffffffff163373ffffffffffffffffffffffffffffffffffffffff1614610709576040517f08c379a000000000000000000000000000000000000000000000000000000000815260040161070090610b8c565b60405180910390fd5b600381908060018154018082558091505060019003905f5260205f20015f90919091909150908161073a9190610dd1565b5050565b5f805f90505b6001805490508110156107d557826040516020016107629190610eda565b604051602081830303815290604052805190602001206001828154811061078c5761078b610baa565b5b905f5260205f20016040516020016107a49190610f70565b60405160208183030381529060405280519060200120036107c857809150506107fa565b8080600101915050610744565b507fffffffffffffffffffffffffffffffffffffffffffffffffffffffffffffffff90505b919050565b5f819050919050565b610811816107ff565b82525050565b5f60208201905061082a5f830184610808565b92915050565b5f604051905090565b5f80fd5b5f80fd5b5f80fd5b5f80fd5b5f601f19601f8301169050919050565b7f4e487b71000000000000000000000000000000000000000000000000000000005f52604160045260245ffd5b61088f82610849565b810181811067ffffffffffffffff821117156108ae576108ad610859565b5b80604052505050565b5f6108c0610830565b90506108cc8282610886565b919050565b5f67ffffffffffffffff8211156108eb576108ea610859565b5b6108f482610849565b9050602081019050919050565b828183375f83830152505050565b5f61092161091c846108d1565b6108b7565b90508281526020810184848401111561093d5761093c610845565b5b610948848285610901565b509392505050565b5f82601f83011261096457610963610841565b5b813561097484826020860161090f565b91505092915050565b5f6020828403121561099257610991610839565b5b5f82013567ffffffffffffffff8111156109af576109ae61083d565b5b6109bb84828501610950565b91505092915050565b6109cd816107ff565b81146109d7575f80fd5b50565b5f813590506109e8816109c4565b92915050565b5f60208284031215610a0357610a02610839565b5b5f610a10848285016109da565b91505092915050565b5f81519050919050565b5f82825260208201905092915050565b8281835e5f83830152505050565b5f610a4b82610a19565b610a558185610a23565b9350610a65818560208601610a33565b610a6e81610849565b840191505092915050565b5f6020820190508181035f830152610a918184610a41565b905092915050565b5f8115159050919050565b610aad81610a99565b82525050565b5f602082019050610ac65f830184610aa4565b92915050565b5f8060408385031215610ae257610ae1610839565b5b5f83013567ffffffffffffffff811115610aff57610afe61083d565b5b610b0b85828601610950565b925050602083013567ffffffffffffffff811115610b2c57610b2b61083d565b5b610b3885828601610950565b9150509250929050565b7f4f776e6572206f6e6c79000000000000000000000000000000000000000000005f82015250565b5f610b76600a83610a23565b9150610b8182610b42565b602082019050919050565b5f6020820190508181035f830152610ba381610b6a565b9050919050565b7f4e487b71000000000000000000000000000000000000000000000000000000005f52603260045260245ffd5b7f4e487b71000000000000000000000000000000000000000000000000000000005f52602260045260245ffd5b5f6002820490506001821680610c1b57607f821691505b602082108103610c2e57610c2d610bd7565b5b50919050565b5f819050815f5260205f209050919050565b5f6020601f8301049050919050565b5f82821b905092915050565b5f60088302610c907fffffffffffffffffffffffffffffffffffffffffffffffffffffffffffffffff82610c55565b610c9a8683610c55565b95508019841693508086168417925050509392505050565b5f819050919050565b5f610cd5610cd0610ccb846107ff565b610cb2565b6107ff565b9050919050565b5f819050919050565b610cee83610cbb565b610d02610cfa82610cdc565b848454610c61565b825550505050565b5f90565b610d16610d0a565b610d21818484610ce5565b505050565b5b81811015610d4457610d395f82610d0e565b600181019050610d27565b5050565b601f821115610d8957610d5a81610c34565b610d6384610c46565b81016020851015610d72578190505b610d86610d7e85610c46565b830182610d26565b50505b505050565b5f82821c905092915050565b5f610da95f1984600802610d8e565b1980831691505092915050565b5f610dc18383610d9a565b9150826002028217905092915050565b610dda82610a19565b67ffffffffffffffff811115610df357610df2610859565b5b610dfd8254610c04565b610e08828285610d48565b5f60209050601f831160018114610e39575f8415610e27578287015190505b610e318582610db6565b865550610e98565b601f198416610e4786610c34565b5f5b82811015610e6e57848901518255600182019150602085019450602081019050610e49565b86831015610e8b5784890151610e87601f891682610d9a565b8355505b6001600288020188555050505b505050505050565b5f81905092915050565b5f610eb482610a19565b610ebe8185610ea0565b9350610ece818560208601610a33565b80840191505092915050565b5f610ee58284610eaa565b915081905092915050565b5f8154610efc81610c04565b610f068186610ea0565b9450600182165f8114610f205760018114610f3557610f67565b60ff1983168652811515820286019350610f67565b610f3e85610c34565b5f5b83811015610f5f57815481890152600182019150602081019050610f40565b838801955050505b50505092915050565b5f610f7b8284610ef0565b91508190509291505056fea2646970667358221220c8df5080dff875f84d335d4baea9ae4b4632acafebeb037b76de151e388f604364736f6c634300081a0033",
					"opcodes": "PUSH1 0x80 PUSH1 0x40 MSTORE CALLVALUE DUP1 ISZERO PUSH1 0xE JUMPI PUSH0 DUP1 REVERT JUMPDEST POP CALLER PUSH0 DUP1 PUSH2 0x100 EXP DUP2 SLOAD DUP2 PUSH20 0xFFFFFFFFFFFFFFFFFFFFFFFFFFFFFFFFFFFFFFFF MUL NOT AND SWAP1 DUP4 PUSH20 0xFFFFFFFFFFFFFFFFFFFFFFFFFFFFFFFFFFFFFFFF AND MUL OR SWAP1 SSTORE POP PUSH2 0xFBC DUP1 PUSH2 0x5B PUSH0 CODECOPY PUSH0 RETURN INVALID PUSH1 0x80 PUSH1 0x40 MSTORE CALLVALUE DUP1 ISZERO PUSH2 0xF JUMPI PUSH0 DUP1 REVERT JUMPDEST POP PUSH1 0x4 CALLDATASIZE LT PUSH2 0x9C JUMPI PUSH0 CALLDATALOAD PUSH1 0xE0 SHR DUP1 PUSH4 0x8BB0FAEE GT PUSH2 0x64 JUMPI DUP1 PUSH4 0x8BB0FAEE EQ PUSH2 0x146 JUMPI DUP1 PUSH4 0x8C79A24D EQ PUSH2 0x162 JUMPI DUP1 PUSH4 0x9D170C5D EQ PUSH2 0x192 JUMPI DUP1 PUSH4 0xCEEBE28D EQ PUSH2 0x1C2 JUMPI DUP1 PUSH4 0xFEE6D28C EQ PUSH2 0x1E0 JUMPI PUSH2 0x9C JUMP JUMPDEST DUP1 PUSH4 0x98AB6A1 EQ PUSH2 0xA0 JUMPI DUP1 PUSH4 0x5AE5DF8F EQ PUSH2 0xBE JUMPI DUP1 PUSH4 0x76F10AD0 EQ PUSH2 0xDA JUMPI DUP1 PUSH4 0x80D9EAA6 EQ PUSH2 0x10A JUMPI DUP1 PUSH4 0x8AC6A869 EQ PUSH2 0x128 JUMPI JUMPDEST PUSH0 DUP1 REVERT JUMPDEST PUSH2 0xA8 PUSH2 0x1FC JUMP JUMPDEST PUSH1 0x40 MLOAD PUSH2 0xB5 SWAP2 SWAP1 PUSH2 0x817 JUMP JUMPDEST PUSH1 0x40 MLOAD DUP1 SWAP2 SUB SWAP1 RETURN JUMPDEST PUSH2 0xD8 PUSH1 0x4 DUP1 CALLDATASIZE SUB DUP2 ADD SWAP1 PUSH2 0xD3 SWAP2 SWAP1 PUSH2 0x97D JUMP JUMPDEST PUSH2 0x208 JUMP JUMPDEST STOP JUMPDEST PUSH2 0xF4 PUSH1 0x4 DUP1 CALLDATASIZE SUB DUP2 ADD SWAP1 PUSH2 0xEF SWAP2 SWAP1 PUSH2 0x9EE JUMP JUMPDEST PUSH2 0x33F JUMP JUMPDEST PUSH1 0x40 MLOAD PUSH2 0x101 SWAP2 SWAP1 PUSH2 0xA79 JUMP JUMPDEST PUSH1 0x40 MLOAD DUP1 SWAP2 SUB SWAP1 RETURN JUMPDEST PUSH2 0x112 PUSH2 0x3EB JUMP JUMPDEST PUSH1 0x40 MLOAD PUSH2 0x11F SWAP2 SWAP1 PUSH2 0x817 JUMP JUMPDEST PUSH1 0x40 MLOAD DUP1 SWAP2 SUB SWAP1 RETURN JUMPDEST PUSH2 0x130 PUSH2 0x3F7 JUMP JUMPDEST PUSH1 0x40 MLOAD PUSH2 0x13D SWAP2 SWAP1 PUSH2 0xAB3 JUMP JUMPDEST PUSH1 0x40 MLOAD DUP1 SWAP2 SUB SWAP1 RETURN JUMPDEST PUSH2 0x160 PUSH1 0x4 DUP1 CALLDATASIZE SUB DUP2 ADD SWAP1 PUSH2 0x15B SWAP2 SWAP1 PUSH2 0xACC JUMP JUMPDEST PUSH2 0x3FB JUMP JUMPDEST STOP JUMPDEST PUSH2 0x17C PUSH1 0x4 DUP1 CALLDATASIZE SUB DUP2 ADD SWAP1 PUSH2 0x177 SWAP2 SWAP1 PUSH2 0x9EE JUMP JUMPDEST PUSH2 0x51A JUMP JUMPDEST PUSH1 0x40 MLOAD PUSH2 0x189 SWAP2 SWAP1 PUSH2 0xA79 JUMP JUMPDEST PUSH1 0x40 MLOAD DUP1 SWAP2 SUB SWAP1 RETURN JUMPDEST PUSH2 0x1AC PUSH1 0x4 DUP1 CALLDATASIZE SUB DUP2 ADD SWAP1 PUSH2 0x1A7 SWAP2 SWAP1 PUSH2 0x97D JUMP JUMPDEST PUSH2 0x5C6 JUMP JUMPDEST PUSH1 0x40 MLOAD PUSH2 0x1B9 SWAP2 SWAP1 PUSH2 0xA79 JUMP JUMPDEST PUSH1 0x40 MLOAD DUP1 SWAP2 SUB SWAP1 RETURN JUMPDEST PUSH2 0x1CA PUSH2 0x674 JUMP JUMPDEST PUSH1 0x40 MLOAD PUSH2 0x1D7 SWAP2 SWAP1 PUSH2 0x817 JUMP JUMPDEST PUSH1 0x40 MLOAD DUP1 SWAP2 SUB SWAP1 RETURN JUMPDEST PUSH2 0x1FA PUSH1 0x4 DUP1 CALLDATASIZE SUB DUP2 ADD SWAP1 PUSH2 0x1F5 SWAP2 SWAP1 PUSH2 0x97D JUMP JUMPDEST PUSH2 0x67C JUMP JUMPDEST STOP JUMPDEST PUSH0 PUSH1 0x3 DUP1 SLOAD SWAP1 POP SWAP1 POP SWAP1 JUMP JUMPDEST PUSH0 DUP1 SLOAD SWAP1 PUSH2 0x100 EXP SWAP1 DIV PUSH20 0xFFFFFFFFFFFFFFFFFFFFFFFFFFFFFFFFFFFFFFFF AND PUSH20 0xFFFFFFFFFFFFFFFFFFFFFFFFFFFFFFFFFFFFFFFF AND CALLER PUSH20 0xFFFFFFFFFFFFFFFFFFFFFFFFFFFFFFFFFFFFFFFF AND EQ PUSH2 0x295 JUMPI PUSH1 0x40 MLOAD PUSH32 0x8C379A000000000000000000000000000000000000000000000000000000000 DUP2 MSTORE PUSH1 0x4 ADD PUSH2 0x28C SWAP1 PUSH2 0xB8C JUMP JUMPDEST PUSH1 0x40 MLOAD DUP1 SWAP2 SUB SWAP1 REVERT JUMPDEST PUSH0 PUSH2 0x29F DUP3 PUSH2 0x73E JUMP JUMPDEST SWAP1 POP PUSH32 0xFFFFFFFFFFFFFFFFFFFFFFFFFFFFFFFFFFFFFFFFFFFFFFFFFFFFFFFFFFFFFFFF DUP2 EQ PUSH2 0x301 JUMPI PUSH1 0x40 MLOAD DUP1 PUSH1 0x20 ADD PUSH1 0x40 MSTORE DUP1 PUSH0 DUP2 MSTORE POP PUSH1 0x1 DUP3 DUP2 SLOAD DUP2 LT PUSH2 0x2EB JUMPI PUSH2 0x2EA PUSH2 0xBAA JUMP JUMPDEST JUMPDEST SWAP1 PUSH0 MSTORE PUSH1 0x20 PUSH0 KECCAK256 ADD SWAP1 DUP2 PUSH2 0x2FF SWAP2 SWAP1 PUSH2 0xDD1 JUMP JUMPDEST POP JUMPDEST PUSH1 0x40 MLOAD DUP1 PUSH1 0x20 ADD PUSH1 0x40 MSTORE DUP1 PUSH0 DUP2 MSTORE POP PUSH1 0x2 DUP4 PUSH1 0x40 MLOAD PUSH2 0x320 SWAP2 SWAP1 PUSH2 0xEDA JUMP JUMPDEST SWAP1 DUP2 MSTORE PUSH1 0x20 ADD PUSH1 0x40 MLOAD DUP1 SWAP2 SUB SWAP1 KECCAK256 SWAP1 DUP2 PUSH2 0x33A SWAP2 SWAP1 PUSH2 0xDD1 JUMP JUMPDEST POP POP POP JUMP JUMPDEST PUSH1 0x60 PUSH1 0x3 DUP3 DUP2 SLOAD DUP2 LT PUSH2 0x355 JUMPI PUSH2 0x354 PUSH2 0xBAA JUMP JUMPDEST JUMPDEST SWAP1 PUSH0 MSTORE PUSH1 0x20 PUSH0 KECCAK256 ADD DUP1 SLOAD PUSH2 0x368 SWAP1 PUSH2 0xC04 JUMP JUMPDEST DUP1 PUSH1 0x1F ADD PUSH1 0x20 DUP1 SWAP2 DIV MUL PUSH1 0x20 ADD PUSH1 0x40 MLOAD SWAP1 DUP2 ADD PUSH1 0x40 MSTORE DUP1 SWAP3 SWAP2 SWAP1 DUP2 DUP2 MSTORE PUSH1 0x20 ADD DUP3 DUP1 SLOAD PUSH2 0x394 SWAP1 PUSH2 0xC04 JUMP JUMPDEST DUP1 ISZERO PUSH2 0x3DF JUMPI DUP1 PUSH1 0x1F LT PUSH2 0x3B6 JUMPI PUSH2 0x100 DUP1 DUP4 SLOAD DIV MUL DUP4 MSTORE SWAP2 PUSH1 0x20 ADD SWAP2 PUSH2 0x3DF JUMP JUMPDEST DUP3 ADD SWAP2 SWAP1 PUSH0 MSTORE PUSH1 0x20 PUSH0 KECCAK256 SWAP1 JUMPDEST DUP2 SLOAD DUP2 MSTORE SWAP1 PUSH1 0x1 ADD SWAP1 PUSH1 0x20 ADD DUP1 DUP4 GT PUSH2 0x3C2 JUMPI DUP3 SWAP1 SUB PUSH1 0x1F AND DUP3 ADD SWAP2 JUMPDEST POP POP POP POP POP SWAP1 POP SWAP2 SWAP1 POP JUMP JUMPDEST PUSH0 PUSH1 0x1 DUP1 SLOAD SWAP1 POP SWAP1 POP SWAP1 JUMP JUMPDEST PUSH0 SWAP1 JUMP JUMPDEST PUSH0 DUP1 SLOAD SWAP1 PUSH2 0x100 EXP SWAP1 DIV PUSH20 0xFFFFFFFFFFFFFFFFFFFFFFFFFFFFFFFFFFFFFFFF AND PUSH20 0xFFFFFFFFFFFFFFFFFFFFFFFFFFFFFFFFFFFFFFFF AND CALLER PUSH20 0xFFFFFFFFFFFFFFFFFFFFFFFFFFFFFFFFFFFFFFFF AND EQ PUSH2 0x488 JUMPI PUSH1 0x40 MLOAD PUSH32 0x8C379A000000000000000000000000000000000000000000000000000000000 DUP2 MSTORE PUSH1 0x4 ADD PUSH2 0x47F SWAP1 PUSH2 0xB8C JUMP JUMPDEST PUSH1 0x40 MLOAD DUP1 SWAP2 SUB SWAP1 REVERT JUMPDEST PUSH32 0xFFFFFFFFFFFFFFFFFFFFFFFFFFFFFFFFFFFFFFFFFFFFFFFFFFFFFFFFFFFFFFFF PUSH2 0x4B2 DUP4 PUSH2 0x73E JUMP JUMPDEST SUB PUSH2 0x4EA JUMPI PUSH1 0x1 DUP3 SWAP1 DUP1 PUSH1 0x1 DUP2 SLOAD ADD DUP1 DUP3 SSTORE DUP1 SWAP2 POP POP PUSH1 0x1 SWAP1 SUB SWAP1 PUSH0 MSTORE PUSH1 0x20 PUSH0 KECCAK256 ADD PUSH0 SWAP1 SWAP2 SWAP1 SWAP2 SWAP1 SWAP2 POP SWAP1 DUP2 PUSH2 0x4E8 SWAP2 SWAP1 PUSH2 0xDD1 JUMP JUMPDEST POP JUMPDEST DUP1 PUSH1 0x2 DUP4 PUSH1 0x40 MLOAD PUSH2 0x4FB SWAP2 SWAP1 PUSH2 0xEDA JUMP JUMPDEST SWAP1 DUP2 MSTORE PUSH1 0x20 ADD PUSH1 0x40 MLOAD DUP1 SWAP2 SUB SWAP1 KECCAK256 SWAP1 DUP2 PUSH2 0x515 SWAP2 SWAP1 PUSH2 0xDD1 JUMP JUMPDEST POP POP POP JUMP JUMPDEST PUSH1 0x60 PUSH1 0x1 DUP3 DUP2 SLOAD DUP2 LT PUSH2 0x530 JUMPI PUSH2 0x52F PUSH2 0xBAA JUMP JUMPDEST JUMPDEST SWAP1 PUSH0 MSTORE PUSH1 0x20 PUSH0 KECCAK256 ADD DUP1 SLOAD PUSH2 0x543 SWAP1 PUSH2 0xC04 JUMP JUMPDEST DUP1 PUSH1 0x1F ADD PUSH1 0x20 DUP1 SWAP2 DIV MUL PUSH1 0x20 ADD PUSH1 0x40 MLOAD SWAP1 DUP2 ADD PUSH1 0x40 MSTORE DUP1 SWAP3 SWAP2 SWAP1 DUP2 DUP2 MSTORE PUSH1 0x20 ADD DUP3 DUP1 SLOAD PUSH2 0x56F SWAP1 PUSH2 0xC04 JUMP JUMPDEST DUP1 ISZERO PUSH2 0x5BA JUMPI DUP1 PUSH1 0x1F LT PUSH2 0x591 JUMPI PUSH2 0x100 DUP1 DUP4 SLOAD DIV MUL DUP4 MSTORE SWAP2 PUSH1 0x20 ADD SWAP2 PUSH2 0x5BA JUMP JUMPDEST DUP3 ADD SWAP2 SWAP1 PUSH0 MSTORE PUSH1 0x20 PUSH0 KECCAK256 SWAP1 JUMPDEST DUP2 SLOAD DUP2 MSTORE SWAP1 PUSH1 0x1 ADD SWAP1 PUSH1 0x20 ADD DUP1 DUP4 GT PUSH2 0x59D JUMPI DUP3 SWAP1 SUB PUSH1 0x1F AND DUP3 ADD SWAP2 JUMPDEST POP POP POP POP POP SWAP1 POP SWAP2 SWAP1 POP JUMP JUMPDEST PUSH1 0x60 PUSH1 0x2 DUP3 PUSH1 0x40 MLOAD PUSH2 0x5D8 SWAP2 SWAP1 PUSH2 0xEDA JUMP JUMPDEST SWAP1 DUP2 MSTORE PUSH1 0x20 ADD PUSH1 0x40 MLOAD DUP1 SWAP2 SUB SWAP1 KECCAK256 DUP1 SLOAD PUSH2 0x5F1 SWAP1 PUSH2 0xC04 JUMP JUMPDEST DUP1 PUSH1 0x1F ADD PUSH1 0x20 DUP1 SWAP2 DIV MUL PUSH1 0x20 ADD PUSH1 0x40 MLOAD SWAP1 DUP2 ADD PUSH1 0x40 MSTORE DUP1 SWAP3 SWAP2 SWAP1 DUP2 DUP2 MSTORE PUSH1 0x20 ADD DUP3 DUP1 SLOAD PUSH2 0x61D SWAP1 PUSH2 0xC04 JUMP JUMPDEST DUP1 ISZERO PUSH2 0x668 JUMPI DUP1 PUSH1 0x1F LT PUSH2 0x63F JUMPI PUSH2 0x100 DUP1 DUP4 SLOAD DIV MUL DUP4 MSTORE SWAP2 PUSH1 0x20 ADD SWAP2 PUSH2 0x668 JUMP JUMPDEST DUP3 ADD SWAP2 SWAP1 PUSH0 MSTORE PUSH1 0x20 PUSH0 KECCAK256 SWAP1 JUMPDEST DUP2 SLOAD DUP2 MSTORE SWAP1 PUSH1 0x1 ADD SWAP1 PUSH1 0x20 ADD DUP1 DUP4 GT PUSH2 0x64B JUMPI DUP3 SWAP1 SUB PUSH1 0x1F AND DUP3 ADD SWAP2 JUMPDEST POP POP POP POP POP SWAP1 POP SWAP2 SWAP1 POP JUMP JUMPDEST PUSH0 PUSH1 0x1 SWAP1 POP SWAP1 JUMP JUMPDEST PUSH0 DUP1 SLOAD SWAP1 PUSH2 0x100 EXP SWAP1 DIV PUSH20 0xFFFFFFFFFFFFFFFFFFFFFFFFFFFFFFFFFFFFFFFF AND PUSH20 0xFFFFFFFFFFFFFFFFFFFFFFFFFFFFFFFFFFFFFFFF AND CALLER PUSH20 0xFFFFFFFFFFFFFFFFFFFFFFFFFFFFFFFFFFFFFFFF AND EQ PUSH2 0x709 JUMPI PUSH1 0x40 MLOAD PUSH32 0x8C379A000000000000000000000000000000000000000000000000000000000 DUP2 MSTORE PUSH1 0x4 ADD PUSH2 0x700 SWAP1 PUSH2 0xB8C JUMP JUMPDEST PUSH1 0x40 MLOAD DUP1 SWAP2 SUB SWAP1 REVERT JUMPDEST PUSH1 0x3 DUP2 SWAP1 DUP1 PUSH1 0x1 DUP2 SLOAD ADD DUP1 DUP3 SSTORE DUP1 SWAP2 POP POP PUSH1 0x1 SWAP1 SUB SWAP1 PUSH0 MSTORE PUSH1 0x20 PUSH0 KECCAK256 ADD PUSH0 SWAP1 SWAP2 SWAP1 SWAP2 SWAP1 SWAP2 POP SWAP1 DUP2 PUSH2 0x73A SWAP2 SWAP1 PUSH2 0xDD1 JUMP JUMPDEST POP POP JUMP JUMPDEST PUSH0 DUP1 PUSH0 SWAP1 POP JUMPDEST PUSH1 0x1 DUP1 SLOAD SWAP1 POP DUP2 LT ISZERO PUSH2 0x7D5 JUMPI DUP3 PUSH1 0x40 MLOAD PUSH1 0x20 ADD PUSH2 0x762 SWAP2 SWAP1 PUSH2 0xEDA JUMP JUMPDEST PUSH1 0x40 MLOAD PUSH1 0x20 DUP2 DUP4 SUB SUB DUP2 MSTORE SWAP1 PUSH1 0x40 MSTORE DUP1 MLOAD SWAP1 PUSH1 0x20 ADD KECCAK256 PUSH1 0x1 DUP3 DUP2 SLOAD DUP2 LT PUSH2 0x78C JUMPI PUSH2 0x78B PUSH2 0xBAA JUMP JUMPDEST JUMPDEST SWAP1 PUSH0 MSTORE PUSH1 0x20 PUSH0 KECCAK256 ADD PUSH1 0x40 MLOAD PUSH1 0x20 ADD PUSH2 0x7A4 SWAP2 SWAP1 PUSH2 0xF70 JUMP JUMPDEST PUSH1 0x40 MLOAD PUSH1 0x20 DUP2 DUP4 SUB SUB DUP2 MSTORE SWAP1 PUSH1 0x40 MSTORE DUP1 MLOAD SWAP1 PUSH1 0x20 ADD KECCAK256 SUB PUSH2 0x7C8 JUMPI DUP1 SWAP2 POP POP PUSH2 0x7FA JUMP JUMPDEST DUP1 DUP1 PUSH1 0x1 ADD SWAP2 POP POP PUSH2 0x744 JUMP JUMPDEST POP PUSH32 0xFFFFFFFFFFFFFFFFFFFFFFFFFFFFFFFFFFFFFFFFFFFFFFFFFFFFFFFFFFFFFFFF SWAP1 POP JUMPDEST SWAP2 SWAP1 POP JUMP JUMPDEST PUSH0 DUP2 SWAP1 POP SWAP2 SWAP1 POP JUMP JUMPDEST PUSH2 0x811 DUP2 PUSH2 0x7FF JUMP JUMPDEST DUP3 MSTORE POP POP JUMP JUMPDEST PUSH0 PUSH1 0x20 DUP3 ADD SWAP1 POP PUSH2 0x82A PUSH0 DUP4 ADD DUP5 PUSH2 0x808 JUMP JUMPDEST SWAP3 SWAP2 POP POP JUMP JUMPDEST PUSH0 PUSH1 0x40 MLOAD SWAP1 POP SWAP1 JUMP JUMPDEST PUSH0 DUP1 REVERT JUMPDEST PUSH0 DUP1 REVERT JUMPDEST PUSH0 DUP1 REVERT JUMPDEST PUSH0 DUP1 REVERT JUMPDEST PUSH0 PUSH1 0x1F NOT PUSH1 0x1F DUP4 ADD AND SWAP1 POP SWAP2 SWAP1 POP JUMP JUMPDEST PUSH32 0x4E487B7100000000000000000000000000000000000000000000000000000000 PUSH0 MSTORE PUSH1 0x41 PUSH1 0x4 MSTORE PUSH1 0x24 PUSH0 REVERT JUMPDEST PUSH2 0x88F DUP3 PUSH2 0x849 JUMP JUMPDEST DUP2 ADD DUP2 DUP2 LT PUSH8 0xFFFFFFFFFFFFFFFF DUP3 GT OR ISZERO PUSH2 0x8AE JUMPI PUSH2 0x8AD PUSH2 0x859 JUMP JUMPDEST JUMPDEST DUP1 PUSH1 0x40 MSTORE POP POP POP JUMP JUMPDEST PUSH0 PUSH2 0x8C0 PUSH2 0x830 JUMP JUMPDEST SWAP1 POP PUSH2 0x8CC DUP3 DUP3 PUSH2 0x886 JUMP JUMPDEST SWAP2 SWAP1 POP JUMP JUMPDEST PUSH0 PUSH8 0xFFFFFFFFFFFFFFFF DUP3 GT ISZERO PUSH2 0x8EB JUMPI PUSH2 0x8EA PUSH2 0x859 JUMP JUMPDEST JUMPDEST PUSH2 0x8F4 DUP3 PUSH2 0x849 JUMP JUMPDEST SWAP1 POP PUSH1 0x20 DUP2 ADD SWAP1 POP SWAP2 SWAP1 POP JUMP JUMPDEST DUP3 DUP2 DUP4 CALLDATACOPY PUSH0 DUP4 DUP4 ADD MSTORE POP POP POP JUMP JUMPDEST PUSH0 PUSH2 0x921 PUSH2 0x91C DUP5 PUSH2 0x8D1 JUMP JUMPDEST PUSH2 0x8B7 JUMP JUMPDEST SWAP1 POP DUP3 DUP2 MSTORE PUSH1 0x20 DUP2 ADD DUP5 DUP5 DUP5 ADD GT ISZERO PUSH2 0x93D JUMPI PUSH2 0x93C PUSH2 0x845 JUMP JUMPDEST JUMPDEST PUSH2 0x948 DUP5 DUP3 DUP6 PUSH2 0x901 JUMP JUMPDEST POP SWAP4 SWAP3 POP POP POP JUMP JUMPDEST PUSH0 DUP3 PUSH1 0x1F DUP4 ADD SLT PUSH2 0x964 JUMPI PUSH2 0x963 PUSH2 0x841 JUMP JUMPDEST JUMPDEST DUP2 CALLDATALOAD PUSH2 0x974 DUP5 DUP3 PUSH1 0x20 DUP7 ADD PUSH2 0x90F JUMP JUMPDEST SWAP2 POP POP SWAP3 SWAP2 POP POP JUMP JUMPDEST PUSH0 PUSH1 0x20 DUP3 DUP5 SUB SLT ISZERO PUSH2 0x992 JUMPI PUSH2 0x991 PUSH2 0x839 JUMP JUMPDEST JUMPDEST PUSH0 DUP3 ADD CALLDATALOAD PUSH8 0xFFFFFFFFFFFFFFFF DUP2 GT ISZERO PUSH2 0x9AF JUMPI PUSH2 0x9AE PUSH2 0x83D JUMP JUMPDEST JUMPDEST PUSH2 0x9BB DUP5 DUP3 DUP6 ADD PUSH2 0x950 JUMP JUMPDEST SWAP2 POP POP SWAP3 SWAP2 POP POP JUMP JUMPDEST PUSH2 0x9CD DUP2 PUSH2 0x7FF JUMP JUMPDEST DUP2 EQ PUSH2 0x9D7 JUMPI PUSH0 DUP1 REVERT JUMPDEST POP JUMP JUMPDEST PUSH0 DUP2 CALLDATALOAD SWAP1 POP PUSH2 0x9E8 DUP2 PUSH2 0x9C4 JUMP JUMPDEST SWAP3 SWAP2 POP POP JUMP JUMPDEST PUSH0 PUSH1 0x20 DUP3 DUP5 SUB SLT ISZERO PUSH2 0xA03 JUMPI PUSH2 0xA02 PUSH2 0x839 JUMP JUMPDEST JUMPDEST PUSH0 PUSH2 0xA10 DUP5 DUP3 DUP6 ADD PUSH2 0x9DA JUMP JUMPDEST SWAP2 POP POP SWAP3 SWAP2 POP POP JUMP JUMPDEST PUSH0 DUP2 MLOAD SWAP1 POP SWAP2 SWAP1 POP JUMP JUMPDEST PUSH0 DUP3 DUP3 MSTORE PUSH1 0x20 DUP3 ADD SWAP1 POP SWAP3 SWAP2 POP POP JUMP JUMPDEST DUP3 DUP2 DUP4 MCOPY PUSH0 DUP4 DUP4 ADD MSTORE POP POP POP JUMP JUMPDEST PUSH0 PUSH2 0xA4B DUP3 PUSH2 0xA19 JUMP JUMPDEST PUSH2 0xA55 DUP2 DUP6 PUSH2 0xA23 JUMP JUMPDEST SWAP4 POP PUSH2 0xA65 DUP2 DUP6 PUSH1 0x20 DUP7 ADD PUSH2 0xA33 JUMP JUMPDEST PUSH2 0xA6E DUP2 PUSH2 0x849 JUMP JUMPDEST DUP5 ADD SWAP2 POP POP SWAP3 SWAP2 POP POP JUMP JUMPDEST PUSH0 PUSH1 0x20 DUP3 ADD SWAP1 POP DUP2 DUP2 SUB PUSH0 DUP4 ADD MSTORE PUSH2 0xA91 DUP2 DUP5 PUSH2 0xA41 JUMP JUMPDEST SWAP1 POP SWAP3 SWAP2 POP POP JUMP JUMPDEST PUSH0 DUP2 ISZERO ISZERO SWAP1 POP SWAP2 SWAP1 POP JUMP JUMPDEST PUSH2 0xAAD DUP2 PUSH2 0xA99 JUMP JUMPDEST DUP3 MSTORE POP POP JUMP JUMPDEST PUSH0 PUSH1 0x20 DUP3 ADD SWAP1 POP PUSH2 0xAC6 PUSH0 DUP4 ADD DUP5 PUSH2 0xAA4 JUMP JUMPDEST SWAP3 SWAP2 POP POP JUMP JUMPDEST PUSH0 DUP1 PUSH1 0x40 DUP4 DUP6 SUB SLT ISZERO PUSH2 0xAE2 JUMPI PUSH2 0xAE1 PUSH2 0x839 JUMP JUMPDEST JUMPDEST PUSH0 DUP4 ADD CALLDATALOAD PUSH8 0xFFFFFFFFFFFFFFFF DUP2 GT ISZERO PUSH2 0xAFF JUMPI PUSH2 0xAFE PUSH2 0x83D JUMP JUMPDEST JUMPDEST PUSH2 0xB0B DUP6 DUP3 DUP7 ADD PUSH2 0x950 JUMP JUMPDEST SWAP3 POP POP PUSH1 0x20 DUP4 ADD CALLDATALOAD PUSH8 0xFFFFFFFFFFFFFFFF DUP2 GT ISZERO PUSH2 0xB2C JUMPI PUSH2 0xB2B PUSH2 0x83D JUMP JUMPDEST JUMPDEST PUSH2 0xB38 DUP6 DUP3 DUP7 ADD PUSH2 0x950 JUMP JUMPDEST SWAP2 POP POP SWAP3 POP SWAP3 SWAP1 POP JUMP JUMPDEST PUSH32 0x4F776E6572206F6E6C7900000000000000000000000000000000000000000000 PUSH0 DUP3 ADD MSTORE POP JUMP JUMPDEST PUSH0 PUSH2 0xB76 PUSH1 0xA DUP4 PUSH2 0xA23 JUMP JUMPDEST SWAP2 POP PUSH2 0xB81 DUP3 PUSH2 0xB42 JUMP JUMPDEST PUSH1 0x20 DUP3 ADD SWAP1 POP SWAP2 SWAP1 POP JUMP JUMPDEST PUSH0 PUSH1 0x20 DUP3 ADD SWAP1 POP DUP2 DUP2 SUB PUSH0 DUP4 ADD MSTORE PUSH2 0xBA3 DUP2 PUSH2 0xB6A JUMP JUMPDEST SWAP1 POP SWAP2 SWAP1 POP JUMP JUMPDEST PUSH32 0x4E487B7100000000000000000000000000000000000000000000000000000000 PUSH0 MSTORE PUSH1 0x32 PUSH1 0x4 MSTORE PUSH1 0x24 PUSH0 REVERT JUMPDEST PUSH32 0x4E487B7100000000000000000000000000000000000000000000000000000000 PUSH0 MSTORE PUSH1 0x22 PUSH1 0x4 MSTORE PUSH1 0x24 PUSH0 REVERT JUMPDEST PUSH0 PUSH1 0x2 DUP3 DIV SWAP1 POP PUSH1 0x1 DUP3 AND DUP1 PUSH2 0xC1B JUMPI PUSH1 0x7F DUP3 AND SWAP2 POP JUMPDEST PUSH1 0x20 DUP3 LT DUP2 SUB PUSH2 0xC2E JUMPI PUSH2 0xC2D PUSH2 0xBD7 JUMP JUMPDEST JUMPDEST POP SWAP2 SWAP1 POP JUMP JUMPDEST PUSH0 DUP2 SWAP1 POP DUP2 PUSH0 MSTORE PUSH1 0x20 PUSH0 KECCAK256 SWAP1 POP SWAP2 SWAP1 POP JUMP JUMPDEST PUSH0 PUSH1 0x20 PUSH1 0x1F DUP4 ADD DIV SWAP1 POP SWAP2 SWAP1 POP JUMP JUMPDEST PUSH0 DUP3 DUP3 SHL SWAP1 POP SWAP3 SWAP2 POP POP JUMP JUMPDEST PUSH0 PUSH1 0x8 DUP4 MUL PUSH2 0xC90 PUSH32 0xFFFFFFFFFFFFFFFFFFFFFFFFFFFFFFFFFFFFFFFFFFFFFFFFFFFFFFFFFFFFFFFF DUP3 PUSH2 0xC55 JUMP JUMPDEST PUSH2 0xC9A DUP7 DUP4 PUSH2 0xC55 JUMP JUMPDEST SWAP6 POP DUP1 NOT DUP5 AND SWAP4 POP DUP1 DUP7 AND DUP5 OR SWAP3 POP POP POP SWAP4 SWAP3 POP POP POP JUMP JUMPDEST PUSH0 DUP2 SWAP1 POP SWAP2 SWAP1 POP JUMP JUMPDEST PUSH0 PUSH2 0xCD5 PUSH2 0xCD0 PUSH2 0xCCB DUP5 PUSH2 0x7FF JUMP JUMPDEST PUSH2 0xCB2 JUMP JUMPDEST PUSH2 0x7FF JUMP JUMPDEST SWAP1 POP SWAP2 SWAP1 POP JUMP JUMPDEST PUSH0 DUP2 SWAP1 POP SWAP2 SWAP1 POP JUMP JUMPDEST PUSH2 0xCEE DUP4 PUSH2 0xCBB JUMP JUMPDEST PUSH2 0xD02 PUSH2 0xCFA DUP3 PUSH2 0xCDC JUMP JUMPDEST DUP5 DUP5 SLOAD PUSH2 0xC61 JUMP JUMPDEST DUP3 SSTORE POP POP POP POP JUMP JUMPDEST PUSH0 SWAP1 JUMP JUMPDEST PUSH2 0xD16 PUSH2 0xD0A JUMP JUMPDEST PUSH2 0xD21 DUP2 DUP5 DUP5 PUSH2 0xCE5 JUMP JUMPDEST POP POP POP JUMP JUMPDEST JUMPDEST DUP2 DUP2 LT ISZERO PUSH2 0xD44 JUMPI PUSH2 0xD39 PUSH0 DUP3 PUSH2 0xD0E JUMP JUMPDEST PUSH1 0x1 DUP2 ADD SWAP1 POP PUSH2 0xD27 JUMP JUMPDEST POP POP JUMP JUMPDEST PUSH1 0x1F DUP3 GT ISZERO PUSH2 0xD89 JUMPI PUSH2 0xD5A DUP2 PUSH2 0xC34 JUMP JUMPDEST PUSH2 0xD63 DUP5 PUSH2 0xC46 JUMP JUMPDEST DUP2 ADD PUSH1 0x20 DUP6 LT ISZERO PUSH2 0xD72 JUMPI DUP2 SWAP1 POP JUMPDEST PUSH2 0xD86 PUSH2 0xD7E DUP6 PUSH2 0xC46 JUMP JUMPDEST DUP4 ADD DUP3 PUSH2 0xD26 JUMP JUMPDEST POP POP JUMPDEST POP POP POP JUMP JUMPDEST PUSH0 DUP3 DUP3 SHR SWAP1 POP SWAP3 SWAP2 POP POP JUMP JUMPDEST PUSH0 PUSH2 0xDA9 PUSH0 NOT DUP5 PUSH1 0x8 MUL PUSH2 0xD8E JUMP JUMPDEST NOT DUP1 DUP4 AND SWAP2 POP POP SWAP3 SWAP2 POP POP JUMP JUMPDEST PUSH0 PUSH2 0xDC1 DUP4 DUP4 PUSH2 0xD9A JUMP JUMPDEST SWAP2 POP DUP3 PUSH1 0x2 MUL DUP3 OR SWAP1 POP SWAP3 SWAP2 POP POP JUMP JUMPDEST PUSH2 0xDDA DUP3 PUSH2 0xA19 JUMP JUMPDEST PUSH8 0xFFFFFFFFFFFFFFFF DUP2 GT ISZERO PUSH2 0xDF3 JUMPI PUSH2 0xDF2 PUSH2 0x859 JUMP JUMPDEST JUMPDEST PUSH2 0xDFD DUP3 SLOAD PUSH2 0xC04 JUMP JUMPDEST PUSH2 0xE08 DUP3 DUP3 DUP6 PUSH2 0xD48 JUMP JUMPDEST PUSH0 PUSH1 0x20 SWAP1 POP PUSH1 0x1F DUP4 GT PUSH1 0x1 DUP2 EQ PUSH2 0xE39 JUMPI PUSH0 DUP5 ISZERO PUSH2 0xE27 JUMPI DUP3 DUP8 ADD MLOAD SWAP1 POP JUMPDEST PUSH2 0xE31 DUP6 DUP3 PUSH2 0xDB6 JUMP JUMPDEST DUP7 SSTORE POP PUSH2 0xE98 JUMP JUMPDEST PUSH1 0x1F NOT DUP5 AND PUSH2 0xE47 DUP7 PUSH2 0xC34 JUMP JUMPDEST PUSH0 JUMPDEST DUP3 DUP2 LT ISZERO PUSH2 0xE6E JUMPI DUP5 DUP10 ADD MLOAD DUP3 SSTORE PUSH1 0x1 DUP3 ADD SWAP2 POP PUSH1 0x20 DUP6 ADD SWAP5 POP PUSH1 0x20 DUP2 ADD SWAP1 POP PUSH2 0xE49 JUMP JUMPDEST DUP7 DUP4 LT ISZERO PUSH2 0xE8B JUMPI DUP5 DUP10 ADD MLOAD PUSH2 0xE87 PUSH1 0x1F DUP10 AND DUP3 PUSH2 0xD9A JUMP JUMPDEST DUP4 SSTORE POP JUMPDEST PUSH1 0x1 PUSH1 0x2 DUP9 MUL ADD DUP9 SSTORE POP POP POP JUMPDEST POP POP POP POP POP POP JUMP JUMPDEST PUSH0 DUP2 SWAP1 POP SWAP3 SWAP2 POP POP JUMP JUMPDEST PUSH0 PUSH2 0xEB4 DUP3 PUSH2 0xA19 JUMP JUMPDEST PUSH2 0xEBE DUP2 DUP6 PUSH2 0xEA0 JUMP JUMPDEST SWAP4 POP PUSH2 0xECE DUP2 DUP6 PUSH1 0x20 DUP7 ADD PUSH2 0xA33 JUMP JUMPDEST DUP1 DUP5 ADD SWAP2 POP POP SWAP3 SWAP2 POP POP JUMP JUMPDEST PUSH0 PUSH2 0xEE5 DUP3 DUP5 PUSH2 0xEAA JUMP JUMPDEST SWAP2 POP DUP2 SWAP1 POP SWAP3 SWAP2 POP POP JUMP JUMPDEST PUSH0 DUP2 SLOAD PUSH2 0xEFC DUP2 PUSH2 0xC04 JUMP JUMPDEST PUSH2 0xF06 DUP2 DUP7 PUSH2 0xEA0 JUMP JUMPDEST SWAP5 POP PUSH1 0x1 DUP3 AND PUSH0 DUP2 EQ PUSH2 0xF20 JUMPI PUSH1 0x1 DUP2 EQ PUSH2 0xF35 JUMPI PUSH2 0xF67 JUMP JUMPDEST PUSH1 0xFF NOT DUP4 AND DUP7 MSTORE DUP2 ISZERO ISZERO DUP3 MUL DUP7 ADD SWAP4 POP PUSH2 0xF67 JUMP JUMPDEST PUSH2 0xF3E DUP6 PUSH2 0xC34 JUMP JUMPDEST PUSH0 JUMPDEST DUP4 DUP2 LT ISZERO PUSH2 0xF5F JUMPI DUP2 SLOAD DUP2 DUP10 ADD MSTORE PUSH1 0x1 DUP3 ADD SWAP2 POP PUSH1 0x20 DUP2 ADD SWAP1 POP PUSH2 0xF40 JUMP JUMPDEST DUP4 DUP9 ADD SWAP6 POP POP POP JUMPDEST POP POP POP SWAP3 SWAP2 POP POP JUMP JUMPDEST PUSH0 PUSH2 0xF7B DUP3 DUP5 PUSH2 0xEF0 JUMP JUMPDEST SWAP2 POP DUP2 SWAP1 POP SWAP3 SWAP2 POP POP JUMP INVALID LOG2 PUSH5 0x6970667358 0x22 SLT KECCAK256 0xC8 0xDF POP DUP1 0xDF 0xF8 PUSH22 0xF84D335D4BAEA9AE4B4632ACAFEBEB037B76DE151E38 DUP16 PUSH1 0x43 PUSH5 0x736F6C6343 STOP ADDMOD BYTE STOP CALLER "
				},
				"gasEstimates": {
					"creation": {
						"codeDepositCost": "805600",
						"executionCost": "25101",
						"totalCost": "830701"
					},
					"external": {
						"addSnapshot(string)": "infinite",
						"deleteRef(string)": "infinite",
						"getRef(string)": "infinite",
						"getSnapshot(uint256)": "infinite",
						"isObsolete()": "419",
						"refCount()": "2507",
						"refName(uint256)": "infinite",
						"repoInterfaceVersion()": "398",
						"setRef(string,string)": "infinite",
						"snapshotCount()": "2441"
					},
					"internal": {
						"__findRef(string memory)": "infinite",
						"strEqual(string memory,string memory)": "infinite"
					}
				},
				"methodIdentifiers": {
					"addSnapshot(string)": "fee6d28c",
					"deleteRef(string)": "5ae5df8f",
					"getRef(string)": "9d170c5d",
					"getSnapshot(uint256)": "76f10ad0",
					"isObsolete()": "8ac6a869",
					"refCount()": "80d9eaa6",
					"refName(uint256)": "8c79a24d",
					"repoInterfaceVersion()": "ceebe28d",
					"setRef(string,string)": "8bb0faee",
					"snapshotCount()": "098ab6a1"
				}
			},
			"storageLayout": {
				"storage": [
					{
						"astId": 6,
						"contract": "MangoRepo.sol:MangoRepo",
						"label": "owner",
						"offset": 0,
						"slot": "0",
						"type": "t_address"
					},
					{
						"astId": 9,
						"contract": "MangoRepo.sol:MangoRepo",
						"label": "refKeys",
						"offset": 0,
						"slot": "1",
						"type": "t_array(t_string_storage)dyn_storage"
					},
					{
						"astId": 13,
						"contract": "MangoRepo.sol:MangoRepo",
						"label": "refs",
						"offset": 0,
						"slot": "2",
						"type": "t_mapping(t_string_memory_ptr,t_string_storage)"
					},
					{
						"astId": 16,
						"contract": "MangoRepo.sol:MangoRepo",
						"label": "snapshots",
						"offset": 0,
						"slot": "3",
						"type": "t_array(t_string_storage)dyn_storage"
					}
				],
				"types": {
					"t_address": {
						"encoding": "inplace",
						"label": "address",
						"numberOfBytes": "20"
					},
					"t_array(t_string_storage)dyn_storage": {
						"base": "t_string_storage",
						"encoding": "dynamic_array",
						"label": "string[]",
						"numberOfBytes": "32"
					},
					"t_mapping(t_string_memory_ptr,t_string_storage)": {
						"encoding": "mapping",
						"key": "t_string_memory_ptr",
						"label": "mapping(string => string)",
						"numberOfBytes": "32",
						"value": "t_string_storage"
					},
					"t_string_memory_ptr": {
						"encoding": "bytes",
						"label": "string",
						"numberOfBytes": "32"
					},
					"t_string_storage": {
						"encoding": "bytes",
						"label": "string",
						"numberOfBytes": "32"
					}
				}
			},
			"userdoc": {
				"kind": "user",
				"methods": {},
				"version": 1
			}
		}
	}
}